{
  "_format": "hh-sol-artifact-1",
  "contractName": "Stakeable",
  "sourceName": "contracts/Stakeable.sol",
  "abi": [
    {
      "inputs": [],
      "stateMutability": "nonpayable",
      "type": "constructor"
    },
    {
      "anonymous": false,
      "inputs": [
        {
          "indexed": true,
          "internalType": "address",
          "name": "user",
          "type": "address"
        },
        {
          "indexed": false,
          "internalType": "uint256",
          "name": "amount",
          "type": "uint256"
        },
        {
          "indexed": false,
          "internalType": "uint256",
          "name": "index",
          "type": "uint256"
        },
        {
          "indexed": false,
          "internalType": "uint256",
          "name": "timestamp",
          "type": "uint256"
        }
      ],
      "name": "Staked",
      "type": "event"
    },
    {
      "inputs": [],
      "name": "_stakingSummary",
      "outputs": [
        {
          "components": [
            {
              "internalType": "uint256",
              "name": "total_amount",
              "type": "uint256"
            },
            {
              "components": [
                {
                  "internalType": "address",
                  "name": "user",
                  "type": "address"
                },
                {
                  "internalType": "uint256",
                  "name": "amount",
                  "type": "uint256"
                },
                {
                  "internalType": "uint256",
                  "name": "since",
                  "type": "uint256"
                },
                {
                  "internalType": "uint256",
                  "name": "claimable",
                  "type": "uint256"
                }
              ],
              "internalType": "struct Stakeable.Stake[]",
              "name": "stakes",
              "type": "tuple[]"
            }
          ],
          "internalType": "struct Stakeable.StakingSummary",
          "name": "",
          "type": "tuple"
        }
      ],
      "stateMutability": "view",
      "type": "function"
    }
  ],
  "bytecode": "0x608060405234801561001057600080fd5b506000600181600181540180825580915050039060005260206000209050506107d58061003e6000396000f3fe608060405234801561001057600080fd5b506004361061002b5760003560e01c80634291a4ae14610030575b600080fd5b61003861004e565b6040516100459190610535565b60405180910390f35b6100566103b2565b600080600160003373ffffffffffffffffffffffffffffffffffffffff1673ffffffffffffffffffffffffffffffffffffffff16815260200190815260200160002054905060008114156100df576040517f08c379a00000000000000000000000000000000000000000000000000000000081526004016100d690610515565b60405180910390fd5b60006040518060400160405280600081526020016000848154811061012d577f4e487b7100000000000000000000000000000000000000000000000000000000600052603260045260246000fd5b9060005260206000209060040201600301805480602002602001604051908101604052809291908181526020016000905b8282101561020457838290600052602060002090600402016040518060800160405290816000820160009054906101000a900473ffffffffffffffffffffffffffffffffffffffff1673ffffffffffffffffffffffffffffffffffffffff1673ffffffffffffffffffffffffffffffffffffffff16815260200160018201548152602001600282015481526020016003820154815250508152602001906001019061015e565b50505050815250905060005b81602001515181101561032757600061026c8360200151838151811061025f577f4e487b7100000000000000000000000000000000000000000000000000000000600052603260045260246000fd5b602002602001015161033b565b905080836020015183815181106102ac577f4e487b7100000000000000000000000000000000000000000000000000000000600052603260045260246000fd5b60200260200101516060018181525050826020015182815181106102f9577f4e487b7100000000000000000000000000000000000000000000000000000000600052603260045260246000fd5b6020026020010151602001518561031091906105a1565b94505060018161032091906105a1565b9050610210565b508281600001818152505080935050505090565b600080600f90506000836020015190506000610e108560400151426103609190610682565b61036a91906105f7565b90506000612238905060008160646103829190610628565b9050808585856103929190610628565b61039c9190610628565b6103a691906105f7565b95505050505050919050565b604051806040016040528060008152602001606081525090565b60006103d88383610474565b60808301905092915050565b6103ed816106b6565b82525050565b60006103fe82610567565b610408818561057f565b935061041383610557565b8060005b8381101561044457815161042b88826103cc565b975061043683610572565b925050600181019050610417565b5085935050505092915050565b600061045e602183610590565b915061046982610750565b604082019050919050565b60808201600082015161048a60008501826103e4565b50602082015161049d6020850182610506565b5060408201516104b06040850182610506565b5060608201516104c36060850182610506565b50505050565b60006040830160008301516104e16000860182610506565b50602083015184820360208601526104f982826103f3565b9150508091505092915050565b61050f816106e8565b82525050565b6000602082019050818103600083015261052e81610451565b9050919050565b6000602082019050818103600083015261054f81846104c9565b905092915050565b6000819050602082019050919050565b600081519050919050565b6000602082019050919050565b600082825260208201905092915050565b600082825260208201905092915050565b60006105ac826106e8565b91506105b7836106e8565b9250827fffffffffffffffffffffffffffffffffffffffffffffffffffffffffffffffff038211156105ec576105eb6106f2565b5b828201905092915050565b6000610602826106e8565b915061060d836106e8565b92508261061d5761061c610721565b5b828204905092915050565b6000610633826106e8565b915061063e836106e8565b9250817fffffffffffffffffffffffffffffffffffffffffffffffffffffffffffffffff0483118215151615610677576106766106f2565b5b828202905092915050565b600061068d826106e8565b9150610698836106e8565b9250828210156106ab576106aa6106f2565b5b828203905092915050565b60006106c1826106c8565b9050919050565b600073ffffffffffffffffffffffffffffffffffffffff82169050919050565b6000819050919050565b7f4e487b7100000000000000000000000000000000000000000000000000000000600052601160045260246000fd5b7f4e487b7100000000000000000000000000000000000000000000000000000000600052601260045260246000fd5b7f5468652075736572206973206e6f742061207374616b65686f6c64657220796560008201527f740000000000000000000000000000000000000000000000000000000000000060208201525056fea264697066735822122059e51105d2b352e36c183d70f9674c35934c5b6382e2e9a4652974eccf21e22c64736f6c63430008040033",
  "linkReferences": {},
  "deployedLinkReferences": {}
}