{
  "contractName": "MashToken",
  "abi": [
    {
      "inputs": [
        {
          "internalType": "uint256",
          "name": "initialSupply",
          "type": "uint256"
        }
      ],
      "stateMutability": "nonpayable",
      "type": "constructor"
    },
    {
      "anonymous": false,
      "inputs": [
        {
          "indexed": true,
          "internalType": "address",
          "name": "owner",
          "type": "address"
        },
        {
          "indexed": true,
          "internalType": "address",
          "name": "spender",
          "type": "address"
        },
        {
          "indexed": false,
          "internalType": "uint256",
          "name": "value",
          "type": "uint256"
        }
      ],
      "name": "Approval",
      "type": "event"
    },
    {
      "anonymous": false,
      "inputs": [
        {
          "indexed": true,
          "internalType": "address",
          "name": "previousOwner",
          "type": "address"
        },
        {
          "indexed": true,
          "internalType": "address",
          "name": "newOwner",
          "type": "address"
        }
      ],
      "name": "OwnershipTransferred",
      "type": "event"
    },
    {
      "anonymous": false,
      "inputs": [
        {
          "indexed": true,
          "internalType": "address",
          "name": "user",
          "type": "address"
        },
        {
          "indexed": false,
          "internalType": "uint256",
          "name": "amount",
          "type": "uint256"
        },
        {
          "indexed": false,
          "internalType": "uint256",
          "name": "index",
          "type": "uint256"
        },
        {
          "indexed": false,
          "internalType": "uint256",
          "name": "timestamp",
          "type": "uint256"
        }
      ],
      "name": "Staked",
      "type": "event"
    },
    {
      "anonymous": false,
      "inputs": [
        {
          "indexed": true,
          "internalType": "address",
          "name": "from",
          "type": "address"
        },
        {
          "indexed": true,
          "internalType": "address",
          "name": "to",
          "type": "address"
        },
        {
          "indexed": false,
          "internalType": "uint256",
          "name": "value",
          "type": "uint256"
        }
      ],
      "name": "Transfer",
      "type": "event"
    },
    {
      "inputs": [
        {
          "internalType": "address",
          "name": "owner",
          "type": "address"
        },
        {
          "internalType": "address",
          "name": "spender",
          "type": "address"
        }
      ],
      "name": "allowance",
      "outputs": [
        {
          "internalType": "uint256",
          "name": "",
          "type": "uint256"
        }
      ],
      "stateMutability": "view",
      "type": "function",
      "constant": true
    },
    {
      "inputs": [
        {
          "internalType": "address",
          "name": "spender",
          "type": "address"
        },
        {
          "internalType": "uint256",
          "name": "amount",
          "type": "uint256"
        }
      ],
      "name": "approve",
      "outputs": [
        {
          "internalType": "bool",
          "name": "",
          "type": "bool"
        }
      ],
      "stateMutability": "nonpayable",
      "type": "function"
    },
    {
      "inputs": [
        {
          "internalType": "address",
          "name": "account",
          "type": "address"
        }
      ],
      "name": "balanceOf",
      "outputs": [
        {
          "internalType": "uint256",
          "name": "",
          "type": "uint256"
        }
      ],
      "stateMutability": "view",
      "type": "function",
      "constant": true
    },
    {
      "inputs": [],
      "name": "decimals",
      "outputs": [
        {
          "internalType": "uint8",
          "name": "",
          "type": "uint8"
        }
      ],
      "stateMutability": "view",
      "type": "function",
      "constant": true
    },
    {
      "inputs": [
        {
          "internalType": "address",
          "name": "spender",
          "type": "address"
        },
        {
          "internalType": "uint256",
          "name": "subtractedValue",
          "type": "uint256"
        }
      ],
      "name": "decreaseAllowance",
      "outputs": [
        {
          "internalType": "bool",
          "name": "",
          "type": "bool"
        }
      ],
      "stateMutability": "nonpayable",
      "type": "function"
    },
    {
      "inputs": [
        {
          "internalType": "address",
          "name": "_staker",
          "type": "address"
        }
      ],
      "name": "hasStake",
      "outputs": [
        {
          "components": [
            {
              "internalType": "uint256",
              "name": "total_amount",
              "type": "uint256"
            },
            {
              "components": [
                {
                  "internalType": "address",
                  "name": "user",
                  "type": "address"
                },
                {
                  "internalType": "uint256",
                  "name": "amount",
                  "type": "uint256"
                },
                {
                  "internalType": "uint256",
                  "name": "since",
                  "type": "uint256"
                },
                {
                  "internalType": "uint256",
                  "name": "claimable",
                  "type": "uint256"
                },
                {
                  "internalType": "uint256",
                  "name": "toWithdraw",
                  "type": "uint256"
                }
              ],
              "internalType": "struct Stakeable.Stake[]",
              "name": "stakes",
              "type": "tuple[]"
            }
          ],
          "internalType": "struct Stakeable.StakingSummary",
          "name": "",
          "type": "tuple"
        }
      ],
      "stateMutability": "view",
      "type": "function",
      "constant": true
    },
    {
      "inputs": [
        {
          "internalType": "address",
          "name": "spender",
          "type": "address"
        },
        {
          "internalType": "uint256",
          "name": "addedValue",
          "type": "uint256"
        }
      ],
      "name": "increaseAllowance",
      "outputs": [
        {
          "internalType": "bool",
          "name": "",
          "type": "bool"
        }
      ],
      "stateMutability": "nonpayable",
      "type": "function"
    },
    {
      "inputs": [],
      "name": "name",
      "outputs": [
        {
          "internalType": "string",
          "name": "",
          "type": "string"
        }
      ],
      "stateMutability": "view",
      "type": "function",
      "constant": true
    },
    {
      "inputs": [],
      "name": "owner",
      "outputs": [
        {
          "internalType": "address",
          "name": "",
          "type": "address"
        }
      ],
      "stateMutability": "view",
      "type": "function",
      "constant": true
    },
    {
      "inputs": [],
      "name": "renounceOwnership",
      "outputs": [],
      "stateMutability": "nonpayable",
      "type": "function"
    },
    {
      "inputs": [],
      "name": "symbol",
      "outputs": [
        {
          "internalType": "string",
          "name": "",
          "type": "string"
        }
      ],
      "stateMutability": "view",
      "type": "function",
      "constant": true
    },
    {
      "inputs": [],
      "name": "totalSupply",
      "outputs": [
        {
          "internalType": "uint256",
          "name": "",
          "type": "uint256"
        }
      ],
      "stateMutability": "view",
      "type": "function",
      "constant": true
    },
    {
      "inputs": [
        {
          "internalType": "address",
          "name": "recipient",
          "type": "address"
        },
        {
          "internalType": "uint256",
          "name": "amount",
          "type": "uint256"
        }
      ],
      "name": "transfer",
      "outputs": [
        {
          "internalType": "bool",
          "name": "",
          "type": "bool"
        }
      ],
      "stateMutability": "nonpayable",
      "type": "function"
    },
    {
      "inputs": [
        {
          "internalType": "address",
          "name": "sender",
          "type": "address"
        },
        {
          "internalType": "address",
          "name": "recipient",
          "type": "address"
        },
        {
          "internalType": "uint256",
          "name": "amount",
          "type": "uint256"
        }
      ],
      "name": "transferFrom",
      "outputs": [
        {
          "internalType": "bool",
          "name": "",
          "type": "bool"
        }
      ],
      "stateMutability": "nonpayable",
      "type": "function"
    },
    {
      "inputs": [
        {
          "internalType": "address",
          "name": "newOwner",
          "type": "address"
        }
      ],
      "name": "transferOwnership",
      "outputs": [],
      "stateMutability": "nonpayable",
      "type": "function"
    },
    {
      "inputs": [
        {
          "internalType": "uint256",
          "name": "_amount",
          "type": "uint256"
        }
      ],
      "name": "stake",
      "outputs": [],
      "stateMutability": "nonpayable",
      "type": "function"
    },
    {
      "inputs": [
        {
          "internalType": "uint256",
          "name": "amount",
          "type": "uint256"
        },
        {
          "internalType": "uint256",
          "name": "stake_index",
          "type": "uint256"
        }
      ],
      "name": "withdrawStake",
      "outputs": [],
      "stateMutability": "nonpayable",
      "type": "function"
    },
    {
      "inputs": [
        {
          "internalType": "uint256",
          "name": "index",
          "type": "uint256"
        }
      ],
      "name": "claim",
      "outputs": [],
      "stateMutability": "nonpayable",
      "type": "function"
    },
    {
      "inputs": [
        {
          "internalType": "uint256",
          "name": "amount",
          "type": "uint256"
        },
        {
          "internalType": "uint256",
          "name": "index",
          "type": "uint256"
        }
      ],
      "name": "withdraw",
      "outputs": [],
      "stateMutability": "nonpayable",
      "type": "function"
    }
  ],
  "bytecode": "0x60806040523480156200001157600080fd5b5060405162003b6138038062003b61833981810160405281019062000037919062000446565b6040518060400160405280600981526020017f4d617368546f6b656e00000000000000000000000000000000000000000000008152506040518060400160405280600481526020017f4d415348000000000000000000000000000000000000000000000000000000008152508160039080519060200190620000bb9291906200037f565b508060049080519060200190620000d49291906200037f565b505050620000f7620000eb6200012e60201b60201c565b6200013660201b60201c565b600660018160018154018082558091505003906000526020600020905050620001273382620001fc60201b60201c565b5062000638565b600033905090565b6000600560009054906101000a900473ffffffffffffffffffffffffffffffffffffffff16905081600560006101000a81548173ffffffffffffffffffffffffffffffffffffffff021916908373ffffffffffffffffffffffffffffffffffffffff1602179055508173ffffffffffffffffffffffffffffffffffffffff168173ffffffffffffffffffffffffffffffffffffffff167f8be0079c531659141344cd1fd0a4f28419497f9722a3daafe3b4186f6b6457e060405160405180910390a35050565b600073ffffffffffffffffffffffffffffffffffffffff168273ffffffffffffffffffffffffffffffffffffffff1614156200026f576040517f08c379a00000000000000000000000000000000000000000000000000000000081526004016200026690620004aa565b60405180910390fd5b62000283600083836200037560201b60201c565b8060026000828254620002979190620004fa565b92505081905550806000808473ffffffffffffffffffffffffffffffffffffffff1673ffffffffffffffffffffffffffffffffffffffff1681526020019081526020016000206000828254620002ee9190620004fa565b925050819055508173ffffffffffffffffffffffffffffffffffffffff16600073ffffffffffffffffffffffffffffffffffffffff167fddf252ad1be2c89b69c2b068fc378daa952ba7f163c4a11628f55a4df523b3ef83604051620003559190620004cc565b60405180910390a362000371600083836200037a60201b60201c565b5050565b505050565b505050565b8280546200038d9062000561565b90600052602060002090601f016020900481019282620003b15760008555620003fd565b82601f10620003cc57805160ff1916838001178555620003fd565b82800160010185558215620003fd579182015b82811115620003fc578251825591602001919060010190620003df565b5b5090506200040c919062000410565b5090565b5b808211156200042b57600081600090555060010162000411565b5090565b60008151905062000440816200061e565b92915050565b6000602082840312156200045957600080fd5b600062000469848285016200042f565b91505092915050565b600062000481601f83620004e9565b91506200048e82620005f5565b602082019050919050565b620004a48162000557565b82525050565b60006020820190508181036000830152620004c58162000472565b9050919050565b6000602082019050620004e3600083018462000499565b92915050565b600082825260208201905092915050565b6000620005078262000557565b9150620005148362000557565b9250827fffffffffffffffffffffffffffffffffffffffffffffffffffffffffffffffff038211156200054c576200054b62000597565b5b828201905092915050565b6000819050919050565b600060028204905060018216806200057a57607f821691505b60208210811415620005915762000590620005c6565b5b50919050565b7f4e487b7100000000000000000000000000000000000000000000000000000000600052601160045260246000fd5b7f4e487b7100000000000000000000000000000000000000000000000000000000600052602260045260246000fd5b7f45524332303a206d696e7420746f20746865207a65726f206164647265737300600082015250565b620006298162000557565b81146200063557600080fd5b50565b61351980620006486000396000f3fe608060405234801561001057600080fd5b50600436106101215760003560e01c8063715018a6116100ad578063a9059cbb11610071578063a9059cbb1461030a578063dd62ed3e1461033a578063e73e14bf1461036a578063f1fdf4691461039a578063f2fde38b146103b657610121565b8063715018a6146102785780638da5cb5b1461028257806395d89b41146102a0578063a457c2d7146102be578063a694fc3a146102ee57610121565b8063313ce567116100f4578063313ce567146101c2578063379607f5146101e057806339509351146101fc578063441a3e701461022c57806370a082311461024857610121565b806306fdde0314610126578063095ea7b31461014457806318160ddd1461017457806323b872dd14610192575b600080fd5b61012e6103d2565b60405161013b9190612a32565b60405180910390f35b61015e60048036038101906101599190612537565b610464565b60405161016b9190612a17565b60405180910390f35b61017c610482565b6040516101899190612cb6565b60405180910390f35b6101ac60048036038101906101a791906124e8565b61048c565b6040516101b99190612a17565b60405180910390f35b6101ca610584565b6040516101d79190612d08565b60405180910390f35b6101fa60048036038101906101f59190612573565b61058d565b005b61021660048036038101906102119190612537565b610599565b6040516102239190612a17565b60405180910390f35b6102466004803603810190610241919061259c565b610645565b005b610262600480360381019061025d9190612483565b610662565b60405161026f9190612cb6565b60405180910390f35b6102806106aa565b005b61028a610732565b60405161029791906129fc565b60405180910390f35b6102a861075c565b6040516102b59190612a32565b60405180910390f35b6102d860048036038101906102d39190612537565b6107ee565b6040516102e59190612a17565b60405180910390f35b61030860048036038101906103039190612573565b6108d9565b005b610324600480360381019061031f9190612537565b61097c565b6040516103319190612a17565b60405180910390f35b610354600480360381019061034f91906124ac565b61099a565b6040516103619190612cb6565b60405180910390f35b610384600480360381019061037f9190612483565b610a21565b6040516103919190612c94565b60405180910390f35b6103b460048036038101906103af919061259c565b610cd0565b005b6103d060048036038101906103cb9190612483565b610ced565b005b6060600380546103e190612f15565b80601f016020809104026020016040519081016040528092919081815260200182805461040d90612f15565b801561045a5780601f1061042f5761010080835404028352916020019161045a565b820191906000526020600020905b81548152906001019060200180831161043d57829003601f168201915b5050505050905090565b6000610478610471610de5565b8484610ded565b6001905092915050565b6000600254905090565b6000610499848484610fb8565b6000600160008673ffffffffffffffffffffffffffffffffffffffff1673ffffffffffffffffffffffffffffffffffffffff16815260200190815260200160002060006104e4610de5565b73ffffffffffffffffffffffffffffffffffffffff1673ffffffffffffffffffffffffffffffffffffffff16815260200190815260200160002054905082811015610564576040517f08c379a000000000000000000000000000000000000000000000000000000000815260040161055b90612b74565b60405180910390fd5b61057885610570610de5565b858403610ded565b60019150509392505050565b60006012905090565b61059681611239565b50565b600061063b6105a6610de5565b8484600160006105b4610de5565b73ffffffffffffffffffffffffffffffffffffffff1673ffffffffffffffffffffffffffffffffffffffff16815260200190815260200160002060008873ffffffffffffffffffffffffffffffffffffffff1673ffffffffffffffffffffffffffffffffffffffff168152602001908152602001600020546106369190612d78565b610ded565b6001905092915050565b6000610651838361157d565b905061065d338261180a565b505050565b60008060008373ffffffffffffffffffffffffffffffffffffffff1673ffffffffffffffffffffffffffffffffffffffff168152602001908152602001600020549050919050565b6106b2610de5565b73ffffffffffffffffffffffffffffffffffffffff166106d0610732565b73ffffffffffffffffffffffffffffffffffffffff1614610726576040517f08c379a000000000000000000000000000000000000000000000000000000000815260040161071d90612b94565b60405180910390fd5b610730600061196a565b565b6000600560009054906101000a900473ffffffffffffffffffffffffffffffffffffffff16905090565b60606004805461076b90612f15565b80601f016020809104026020016040519081016040528092919081815260200182805461079790612f15565b80156107e45780601f106107b9576101008083540402835291602001916107e4565b820191906000526020600020905b8154815290600101906020018083116107c757829003601f168201915b5050505050905090565b600080600160006107fd610de5565b73ffffffffffffffffffffffffffffffffffffffff1673ffffffffffffffffffffffffffffffffffffffff16815260200190815260200160002060008573ffffffffffffffffffffffffffffffffffffffff1673ffffffffffffffffffffffffffffffffffffffff168152602001908152602001600020549050828110156108ba576040517f08c379a00000000000000000000000000000000000000000000000000000000081526004016108b190612c54565b60405180910390fd5b6108ce6108c5610de5565b85858403610ded565b600191505092915050565b6108e233610662565b8110610923576040517f08c379a000000000000000000000000000000000000000000000000000000000815260040161091a90612b34565b60405180910390fd5b60008111610966576040517f08c379a000000000000000000000000000000000000000000000000000000000815260040161095d90612bb4565b60405180910390fd5b61096f81611a30565b6109793382611c09565b50565b6000610990610989610de5565b8484610fb8565b6001905092915050565b6000600160008473ffffffffffffffffffffffffffffffffffffffff1673ffffffffffffffffffffffffffffffffffffffff16815260200190815260200160002060008373ffffffffffffffffffffffffffffffffffffffff1673ffffffffffffffffffffffffffffffffffffffff16815260200190815260200160002054905092915050565b610a2961243f565b6000806040518060400160405280600081526020016006600760008873ffffffffffffffffffffffffffffffffffffffff1673ffffffffffffffffffffffffffffffffffffffff1681526020019081526020016000205481548110610ab7577f4e487b7100000000000000000000000000000000000000000000000000000000600052603260045260246000fd5b9060005260206000209060020201600101805480602002602001604051908101604052809291908181526020016000905b82821015610b9857838290600052602060002090600502016040518060a00160405290816000820160009054906101000a900473ffffffffffffffffffffffffffffffffffffffff1673ffffffffffffffffffffffffffffffffffffffff1673ffffffffffffffffffffffffffffffffffffffff16815260200160018201548152602001600282015481526020016003820154815260200160048201548152505081526020019060010190610ae8565b50505050815250905060005b816020015151811015610cbb576000610c0083602001518381518110610bf3577f4e487b7100000000000000000000000000000000000000000000000000000000600052603260045260246000fd5b6020026020010151611de0565b90508083602001518381518110610c40577f4e487b7100000000000000000000000000000000000000000000000000000000600052603260045260246000fd5b6020026020010151606001818152505082602001518281518110610c8d577f4e487b7100000000000000000000000000000000000000000000000000000000600052603260045260246000fd5b60200260200101516020015184610ca49190612d78565b935050600181610cb49190612d78565b9050610ba4565b50818160000181815250508092505050919050565b6000610cdc8383611eaf565b9050610ce8338261180a565b505050565b610cf5610de5565b73ffffffffffffffffffffffffffffffffffffffff16610d13610732565b73ffffffffffffffffffffffffffffffffffffffff1614610d69576040517f08c379a0000000000000000000000000000000000000000000000000000000008152600401610d6090612b94565b60405180910390fd5b600073ffffffffffffffffffffffffffffffffffffffff168173ffffffffffffffffffffffffffffffffffffffff161415610dd9576040517f08c379a0000000000000000000000000000000000000000000000000000000008152600401610dd090612a94565b60405180910390fd5b610de28161196a565b50565b600033905090565b600073ffffffffffffffffffffffffffffffffffffffff168373ffffffffffffffffffffffffffffffffffffffff161415610e5d576040517f08c379a0000000000000000000000000000000000000000000000000000000008152600401610e5490612c14565b60405180910390fd5b600073ffffffffffffffffffffffffffffffffffffffff168273ffffffffffffffffffffffffffffffffffffffff161415610ecd576040517f08c379a0000000000000000000000000000000000000000000000000000000008152600401610ec490612ab4565b60405180910390fd5b80600160008573ffffffffffffffffffffffffffffffffffffffff1673ffffffffffffffffffffffffffffffffffffffff16815260200190815260200160002060008473ffffffffffffffffffffffffffffffffffffffff1673ffffffffffffffffffffffffffffffffffffffff168152602001908152602001600020819055508173ffffffffffffffffffffffffffffffffffffffff168373ffffffffffffffffffffffffffffffffffffffff167f8c5be1e5ebec7d5bd14f71427d1e84f3dd0314c0f7b2291e5b200ac8c7c3b92583604051610fab9190612cb6565b60405180910390a3505050565b600073ffffffffffffffffffffffffffffffffffffffff168373ffffffffffffffffffffffffffffffffffffffff161415611028576040517f08c379a000000000000000000000000000000000000000000000000000000000815260040161101f90612bf4565b60405180910390fd5b600073ffffffffffffffffffffffffffffffffffffffff168273ffffffffffffffffffffffffffffffffffffffff161415611098576040517f08c379a000000000000000000000000000000000000000000000000000000000815260040161108f90612a54565b60405180910390fd5b6110a38383836122ba565b60008060008573ffffffffffffffffffffffffffffffffffffffff1673ffffffffffffffffffffffffffffffffffffffff16815260200190815260200160002054905081811015611129576040517f08c379a000000000000000000000000000000000000000000000000000000000815260040161112090612af4565b60405180910390fd5b8181036000808673ffffffffffffffffffffffffffffffffffffffff1673ffffffffffffffffffffffffffffffffffffffff16815260200190815260200160002081905550816000808573ffffffffffffffffffffffffffffffffffffffff1673ffffffffffffffffffffffffffffffffffffffff16815260200190815260200160002060008282546111bc9190612d78565b925050819055508273ffffffffffffffffffffffffffffffffffffffff168473ffffffffffffffffffffffffffffffffffffffff167fddf252ad1be2c89b69c2b068fc378daa952ba7f163c4a11628f55a4df523b3ef846040516112209190612cb6565b60405180910390a36112338484846122bf565b50505050565b6000600760003373ffffffffffffffffffffffffffffffffffffffff1673ffffffffffffffffffffffffffffffffffffffff1681526020019081526020016000205490506000600682815481106112b9577f4e487b7100000000000000000000000000000000000000000000000000000000600052603260045260246000fd5b90600052602060002090600202016001018381548110611302577f4e487b7100000000000000000000000000000000000000000000000000000000600052603260045260246000fd5b90600052602060002090600502016040518060a00160405290816000820160009054906101000a900473ffffffffffffffffffffffffffffffffffffffff1673ffffffffffffffffffffffffffffffffffffffff1673ffffffffffffffffffffffffffffffffffffffff1681526020016001820154815260200160028201548152602001600382015481526020016004820154815250509050600682815481106113d5577f4e487b7100000000000000000000000000000000000000000000000000000000600052603260045260246000fd5b906000526020600020906002020160010180549050831061142b576040517f08c379a000000000000000000000000000000000000000000000000000000000815260040161142290612b54565b60405180910390fd5b600061143682611de0565b9050600082602001511461157757806006848154811061147f577f4e487b7100000000000000000000000000000000000000000000000000000000600052603260045260246000fd5b906000526020600020906002020160010185815481106114c8577f4e487b7100000000000000000000000000000000000000000000000000000000600052603260045260246000fd5b9060005260206000209060050201600401819055504260068481548110611518577f4e487b7100000000000000000000000000000000000000000000000000000000600052603260045260246000fd5b90600052602060002090600202016001018581548110611561577f4e487b7100000000000000000000000000000000000000000000000000000000600052603260045260246000fd5b9060005260206000209060050201600201819055505b50505050565b600080600760003373ffffffffffffffffffffffffffffffffffffffff1673ffffffffffffffffffffffffffffffffffffffff1681526020019081526020016000205490506000600682815481106115fe577f4e487b7100000000000000000000000000000000000000000000000000000000600052603260045260246000fd5b90600052602060002090600202016001018481548110611647577f4e487b7100000000000000000000000000000000000000000000000000000000600052603260045260246000fd5b90600052602060002090600502016040518060a00160405290816000820160009054906101000a900473ffffffffffffffffffffffffffffffffffffffff1673ffffffffffffffffffffffffffffffffffffffff1673ffffffffffffffffffffffffffffffffffffffff16815260200160018201548152602001600282015481526020016003820154815260200160048201548152505090508481608001511015611727576040517f08c379a000000000000000000000000000000000000000000000000000000000815260040161171e90612b14565b60405180910390fd5b60006201518082604001514261173d9190612e59565b11905080156117fc578560068481548110611781577f4e487b7100000000000000000000000000000000000000000000000000000000600052603260045260246000fd5b906000526020600020906002020160010186815481106117ca577f4e487b7100000000000000000000000000000000000000000000000000000000600052603260045260246000fd5b906000526020600020906005020160040160008282546117ea9190612e59565b92505081905550859350505050611804565b600093505050505b92915050565b600073ffffffffffffffffffffffffffffffffffffffff168273ffffffffffffffffffffffffffffffffffffffff16141561187a576040517f08c379a000000000000000000000000000000000000000000000000000000000815260040161187190612c74565b60405180910390fd5b611886600083836122ba565b80600260008282546118989190612d78565b92505081905550806000808473ffffffffffffffffffffffffffffffffffffffff1673ffffffffffffffffffffffffffffffffffffffff16815260200190815260200160002060008282546118ed9190612d78565b925050819055508173ffffffffffffffffffffffffffffffffffffffff16600073ffffffffffffffffffffffffffffffffffffffff167fddf252ad1be2c89b69c2b068fc378daa952ba7f163c4a11628f55a4df523b3ef836040516119529190612cb6565b60405180910390a3611966600083836122bf565b5050565b6000600560009054906101000a900473ffffffffffffffffffffffffffffffffffffffff16905081600560006101000a81548173ffffffffffffffffffffffffffffffffffffffff021916908373ffffffffffffffffffffffffffffffffffffffff1602179055508173ffffffffffffffffffffffffffffffffffffffff168173ffffffffffffffffffffffffffffffffffffffff167f8be0079c531659141344cd1fd0a4f28419497f9722a3daafe3b4186f6b6457e060405160405180910390a35050565b6000600760003373ffffffffffffffffffffffffffffffffffffffff1673ffffffffffffffffffffffffffffffffffffffff16815260200190815260200160002054905060004290506000821415611a8e57611a8b336122c4565b91505b60068281548110611ac8577f4e487b7100000000000000000000000000000000000000000000000000000000600052603260045260246000fd5b90600052602060002090600202016001016040518060a001604052803373ffffffffffffffffffffffffffffffffffffffff168152602001858152602001838152602001600081526020016000815250908060018154018082558091505060019003906000526020600020906005020160009091909190915060008201518160000160006101000a81548173ffffffffffffffffffffffffffffffffffffffff021916908373ffffffffffffffffffffffffffffffffffffffff1602179055506020820151816001015560408201518160020155606082015181600301556080820151816004015550503373ffffffffffffffffffffffffffffffffffffffff167fb4caaf29adda3eefee3ad552a8e85058589bf834c7466cae4ee58787f70589ed848484604051611bfc93929190612cd1565b60405180910390a2505050565b600073ffffffffffffffffffffffffffffffffffffffff168273ffffffffffffffffffffffffffffffffffffffff161415611c79576040517f08c379a0000000000000000000000000000000000000000000000000000000008152600401611c7090612bd4565b60405180910390fd5b611c85826000836122ba565b60008060008473ffffffffffffffffffffffffffffffffffffffff1673ffffffffffffffffffffffffffffffffffffffff16815260200190815260200160002054905081811015611d0b576040517f08c379a0000000000000000000000000000000000000000000000000000000008152600401611d0290612a74565b60405180910390fd5b8181036000808573ffffffffffffffffffffffffffffffffffffffff1673ffffffffffffffffffffffffffffffffffffffff168152602001908152602001600020819055508160026000828254611d629190612e59565b92505081905550600073ffffffffffffffffffffffffffffffffffffffff168373ffffffffffffffffffffffffffffffffffffffff167fddf252ad1be2c89b69c2b068fc378daa952ba7f163c4a11628f55a4df523b3ef84604051611dc79190612cb6565b60405180910390a3611ddb836000846122bf565b505050565b6000806000836020015190506064811015611dfe57600f9150611e48565b60648110158015611e1157506103e88111155b15611e1f5760109150611e47565b6103e88110158015611e3357506105dc8111155b15611e415760119150611e46565b601291505b5b5b6000610e10856040015142611e5d9190612e59565b611e679190612dce565b9050600061223890506000816064611e7f9190612dff565b905080858585611e8f9190612dff565b611e999190612dff565b611ea39190612dce565b95505050505050919050565b600080600760003373ffffffffffffffffffffffffffffffffffffffff1673ffffffffffffffffffffffffffffffffffffffff168152602001908152602001600020549050600060068281548110611f30577f4e487b7100000000000000000000000000000000000000000000000000000000600052603260045260246000fd5b90600052602060002090600202016001018481548110611f79577f4e487b7100000000000000000000000000000000000000000000000000000000600052603260045260246000fd5b90600052602060002090600502016040518060a00160405290816000820160009054906101000a900473ffffffffffffffffffffffffffffffffffffffff1673ffffffffffffffffffffffffffffffffffffffff1673ffffffffffffffffffffffffffffffffffffffff16815260200160018201548152602001600282015481526020016003820154815260200160048201548152505090508481602001511015612059576040517f08c379a000000000000000000000000000000000000000000000000000000000815260040161205090612c34565b60405180910390fd5b600061206482611de0565b90508582602001516120769190612e59565b82602001818152505060008260200151141561216c57600683815481106120c6577f4e487b7100000000000000000000000000000000000000000000000000000000600052603260045260246000fd5b9060005260206000209060020201600101858154811061210f577f4e487b7100000000000000000000000000000000000000000000000000000000600052603260045260246000fd5b9060005260206000209060050201600080820160006101000a81549073ffffffffffffffffffffffffffffffffffffffff0219169055600182016000905560028201600090556003820160009055600482016000905550506122a3565b8160200151600684815481106121ab577f4e487b7100000000000000000000000000000000000000000000000000000000600052603260045260246000fd5b906000526020600020906002020160010186815481106121f4577f4e487b7100000000000000000000000000000000000000000000000000000000600052603260045260246000fd5b9060005260206000209060050201600101819055504260068481548110612244577f4e487b7100000000000000000000000000000000000000000000000000000000600052603260045260246000fd5b9060005260206000209060020201600101868154811061228d577f4e487b7100000000000000000000000000000000000000000000000000000000600052603260045260246000fd5b9060005260206000209060050201600201819055505b80866122af9190612d78565b935050505092915050565b505050565b505050565b60008073ffffffffffffffffffffffffffffffffffffffff168273ffffffffffffffffffffffffffffffffffffffff1611612334576040517f08c379a000000000000000000000000000000000000000000000000000000000815260040161232b90612ad4565b60405180910390fd5b600660018160018154018082558091505003906000526020600020905050600060016006805490506123669190612e59565b905082600682815481106123a3577f4e487b7100000000000000000000000000000000000000000000000000000000600052603260045260246000fd5b906000526020600020906002020160000160006101000a81548173ffffffffffffffffffffffffffffffffffffffff021916908373ffffffffffffffffffffffffffffffffffffffff16021790555080600760008573ffffffffffffffffffffffffffffffffffffffff1673ffffffffffffffffffffffffffffffffffffffff1681526020019081526020016000208190555080915050919050565b604051806040016040528060008152602001606081525090565b600081359050612468816134b5565b92915050565b60008135905061247d816134cc565b92915050565b60006020828403121561249557600080fd5b60006124a384828501612459565b91505092915050565b600080604083850312156124bf57600080fd5b60006124cd85828601612459565b92505060206124de85828601612459565b9150509250929050565b6000806000606084860312156124fd57600080fd5b600061250b86828701612459565b935050602061251c86828701612459565b925050604061252d8682870161246e565b9150509250925092565b6000806040838503121561254a57600080fd5b600061255885828601612459565b92505060206125698582860161246e565b9150509250929050565b60006020828403121561258557600080fd5b60006125938482850161246e565b91505092915050565b600080604083850312156125af57600080fd5b60006125bd8582860161246e565b92505060206125ce8582860161246e565b9150509250929050565b60006125e4838361292a565b60a08301905092915050565b6125f981612e8d565b82525050565b61260881612e8d565b82525050565b600061261982612d33565b6126238185612d56565b935061262e83612d23565b8060005b8381101561265f57815161264688826125d8565b975061265183612d49565b925050600181019050612632565b5085935050505092915050565b61267581612e9f565b82525050565b600061268682612d3e565b6126908185612d67565b93506126a0818560208601612ee2565b6126a981612fd4565b840191505092915050565b60006126c1602383612d67565b91506126cc82612fe5565b604082019050919050565b60006126e4602283612d67565b91506126ef82613034565b604082019050919050565b6000612707602683612d67565b915061271282613083565b604082019050919050565b600061272a602283612d67565b9150612735826130d2565b604082019050919050565b600061274d601e83612d67565b915061275882613121565b602082019050919050565b6000612770602683612d67565b915061277b8261314a565b604082019050919050565b6000612793602e83612d67565b915061279e82613199565b604082019050919050565b60006127b6601e83612d67565b91506127c1826131e8565b602082019050919050565b60006127d9601283612d67565b91506127e482613211565b602082019050919050565b60006127fc602883612d67565b91506128078261323a565b604082019050919050565b600061281f602083612d67565b915061282a82613289565b602082019050919050565b6000612842602683612d67565b915061284d826132b2565b604082019050919050565b6000612865602183612d67565b915061287082613301565b604082019050919050565b6000612888602583612d67565b915061289382613350565b604082019050919050565b60006128ab602483612d67565b91506128b68261339f565b604082019050919050565b60006128ce603283612d67565b91506128d9826133ee565b604082019050919050565b60006128f1602583612d67565b91506128fc8261343d565b604082019050919050565b6000612914601f83612d67565b915061291f8261348c565b602082019050919050565b60a08201600082015161294060008501826125f0565b50602082015161295360208501826129cf565b50604082015161296660408501826129cf565b50606082015161297960608501826129cf565b50608082015161298c60808501826129cf565b50505050565b60006040830160008301516129aa60008601826129cf565b50602083015184820360208601526129c2828261260e565b9150508091505092915050565b6129d881612ecb565b82525050565b6129e781612ecb565b82525050565b6129f681612ed5565b82525050565b6000602082019050612a1160008301846125ff565b92915050565b6000602082019050612a2c600083018461266c565b92915050565b60006020820190508181036000830152612a4c818461267b565b905092915050565b60006020820190508181036000830152612a6d816126b4565b9050919050565b60006020820190508181036000830152612a8d816126d7565b9050919050565b60006020820190508181036000830152612aad816126fa565b9050919050565b60006020820190508181036000830152612acd8161271d565b9050919050565b60006020820190508181036000830152612aed81612740565b9050919050565b60006020820190508181036000830152612b0d81612763565b9050919050565b60006020820190508181036000830152612b2d81612786565b9050919050565b60006020820190508181036000830152612b4d816127a9565b9050919050565b60006020820190508181036000830152612b6d816127cc565b9050919050565b60006020820190508181036000830152612b8d816127ef565b9050919050565b60006020820190508181036000830152612bad81612812565b9050919050565b60006020820190508181036000830152612bcd81612835565b9050919050565b60006020820190508181036000830152612bed81612858565b9050919050565b60006020820190508181036000830152612c0d8161287b565b9050919050565b60006020820190508181036000830152612c2d8161289e565b9050919050565b60006020820190508181036000830152612c4d816128c1565b9050919050565b60006020820190508181036000830152612c6d816128e4565b9050919050565b60006020820190508181036000830152612c8d81612907565b9050919050565b60006020820190508181036000830152612cae8184612992565b905092915050565b6000602082019050612ccb60008301846129de565b92915050565b6000606082019050612ce660008301866129de565b612cf360208301856129de565b612d0060408301846129de565b949350505050565b6000602082019050612d1d60008301846129ed565b92915050565b6000819050602082019050919050565b600081519050919050565b600081519050919050565b6000602082019050919050565b600082825260208201905092915050565b600082825260208201905092915050565b6000612d8382612ecb565b9150612d8e83612ecb565b9250827fffffffffffffffffffffffffffffffffffffffffffffffffffffffffffffffff03821115612dc357612dc2612f47565b5b828201905092915050565b6000612dd982612ecb565b9150612de483612ecb565b925082612df457612df3612f76565b5b828204905092915050565b6000612e0a82612ecb565b9150612e1583612ecb565b9250817fffffffffffffffffffffffffffffffffffffffffffffffffffffffffffffffff0483118215151615612e4e57612e4d612f47565b5b828202905092915050565b6000612e6482612ecb565b9150612e6f83612ecb565b925082821015612e8257612e81612f47565b5b828203905092915050565b6000612e9882612eab565b9050919050565b60008115159050919050565b600073ffffffffffffffffffffffffffffffffffffffff82169050919050565b6000819050919050565b600060ff82169050919050565b60005b83811015612f00578082015181840152602081019050612ee5565b83811115612f0f576000848401525b50505050565b60006002820490506001821680612f2d57607f821691505b60208210811415612f4157612f40612fa5565b5b50919050565b7f4e487b7100000000000000000000000000000000000000000000000000000000600052601160045260246000fd5b7f4e487b7100000000000000000000000000000000000000000000000000000000600052601260045260246000fd5b7f4e487b7100000000000000000000000000000000000000000000000000000000600052602260045260246000fd5b6000601f19601f8301169050919050565b7f45524332303a207472616e7366657220746f20746865207a65726f206164647260008201527f6573730000000000000000000000000000000000000000000000000000000000602082015250565b7f45524332303a206275726e20616d6f756e7420657863656564732062616c616e60008201527f6365000000000000000000000000000000000000000000000000000000000000602082015250565b7f4f776e61626c653a206e6577206f776e657220697320746865207a65726f206160008201527f6464726573730000000000000000000000000000000000000000000000000000602082015250565b7f45524332303a20617070726f766520746f20746865207a65726f20616464726560008201527f7373000000000000000000000000000000000000000000000000000000000000602082015250565b7f43616e6e6f74207374616b652066726f6d207a65726f20616464726573730000600082015250565b7f45524332303a207472616e7366657220616d6f756e742065786365656473206260008201527f616c616e63650000000000000000000000000000000000000000000000000000602082015250565b7f5374616b696e673a2043616e6e6f74207769746864726177206d6f726520746860008201527f61742077617320636c61696d6564000000000000000000000000000000000000602082015250565b7f43616e6e6f74207374616b65206d6f7265207468616e20796f75206f776e0000600082015250565b7f4e6f6e2d6578697374656e74207374616b650000000000000000000000000000600082015250565b7f45524332303a207472616e7366657220616d6f756e742065786365656473206160008201527f6c6c6f77616e6365000000000000000000000000000000000000000000000000602082015250565b7f4f776e61626c653a2063616c6c6572206973206e6f7420746865206f776e6572600082015250565b7f4e65656420746f207374616b6520736d74682c2063616e74207374616b65206e60008201527f6f7468696e670000000000000000000000000000000000000000000000000000602082015250565b7f45524332303a206275726e2066726f6d20746865207a65726f2061646472657360008201527f7300000000000000000000000000000000000000000000000000000000000000602082015250565b7f45524332303a207472616e736665722066726f6d20746865207a65726f20616460008201527f6472657373000000000000000000000000000000000000000000000000000000602082015250565b7f45524332303a20617070726f76652066726f6d20746865207a65726f2061646460008201527f7265737300000000000000000000000000000000000000000000000000000000602082015250565b7f5374616b696e673a2043616e6e6f74207769746864726177206d6f726520746860008201527f616e20796f752068617665207374616b65640000000000000000000000000000602082015250565b7f45524332303a2064656372656173656420616c6c6f77616e63652062656c6f7760008201527f207a65726f000000000000000000000000000000000000000000000000000000602082015250565b7f45524332303a206d696e7420746f20746865207a65726f206164647265737300600082015250565b6134be81612e8d565b81146134c957600080fd5b50565b6134d581612ecb565b81146134e057600080fd5b5056fea2646970667358221220a1161a432177d326963e109dd2846903eb324a8417bda355cefb6f8283255bf564736f6c63430008040033",
  "immutableReferences": {},
  "source": "// SPDX-License-Identifier: MIT\npragma solidity ^0.8.4;\n\nimport \"@openzeppelin/contracts/token/ERC20/ERC20.sol\";\nimport \"@openzeppelin/contracts/access/Ownable.sol\";\nimport \"./Stakeable.sol\";\n\ncontract MashToken is ERC20, Ownable, Stakeable {\n    constructor(uint256 initialSupply) ERC20(\"MashToken\", \"MASH\") {\n        _mint(msg.sender, initialSupply);\n    }\n\n\n    function stake(uint256 _amount) external{\n      require(_amount < balanceOf(msg.sender), \"Cannot stake more than you own\");\n      require(_amount > 0, \"Need to stake smth, cant stake nothing\"); //this require was in stakeable contract (is it ok to put it here?)\n\n      _stake(_amount);\n      _burn(msg.sender, _amount);\n    }\n\n    function withdrawStake(uint256 amount, uint256 stake_index) external {\n      uint256 amount_to_mint = _withdrawStake(amount, stake_index);\n      _mint(msg.sender, amount_to_mint);\n    }\n\n    function claim(uint256 index) external {\n      _claim(index);\n    }\n\n    function withdraw(uint amount, uint index) external{\n      uint256 amount_to_mint = _withdraw(amount, index);\n      _mint(msg.sender, amount_to_mint);\n    }\n}",
  "sourcePath": "D:\\Mashka\\solidity\\Eth-Solidity-learn\\Assignment\\contracts\\MashToken.sol",
  "compiler": {
    "name": "solc",
    "version": "0.8.4+commit.c7e474f2.Emscripten.clang"
  },
  "schemaVersion": "3.4.3",
  "updatedAt": "2021-09-20T07:33:32.497Z",
  "networkType": "ethereum",
  "devdoc": {
    "kind": "dev",
    "methods": {
      "allowance(address,address)": {
        "details": "See {IERC20-allowance}."
      },
      "approve(address,uint256)": {
        "details": "See {IERC20-approve}. Requirements: - `spender` cannot be the zero address."
      },
      "balanceOf(address)": {
        "details": "See {IERC20-balanceOf}."
      },
      "decimals()": {
        "details": "Returns the number of decimals used to get its user representation. For example, if `decimals` equals `2`, a balance of `505` tokens should be displayed to a user as `5.05` (`505 / 10 ** 2`). Tokens usually opt for a value of 18, imitating the relationship between Ether and Wei. This is the value {ERC20} uses, unless this function is overridden; NOTE: This information is only used for _display_ purposes: it in no way affects any of the arithmetic of the contract, including {IERC20-balanceOf} and {IERC20-transfer}."
      },
      "decreaseAllowance(address,uint256)": {
        "details": "Atomically decreases the allowance granted to `spender` by the caller. This is an alternative to {approve} that can be used as a mitigation for problems described in {IERC20-approve}. Emits an {Approval} event indicating the updated allowance. Requirements: - `spender` cannot be the zero address. - `spender` must have allowance for the caller of at least `subtractedValue`."
      },
      "increaseAllowance(address,uint256)": {
        "details": "Atomically increases the allowance granted to `spender` by the caller. This is an alternative to {approve} that can be used as a mitigation for problems described in {IERC20-approve}. Emits an {Approval} event indicating the updated allowance. Requirements: - `spender` cannot be the zero address."
      },
      "name()": {
        "details": "Returns the name of the token."
      },
      "owner()": {
        "details": "Returns the address of the current owner."
      },
      "renounceOwnership()": {
        "details": "Leaves the contract without owner. It will not be possible to call `onlyOwner` functions anymore. Can only be called by the current owner. NOTE: Renouncing ownership will leave the contract without an owner, thereby removing any functionality that is only available to the owner."
      },
      "symbol()": {
        "details": "Returns the symbol of the token, usually a shorter version of the name."
      },
      "totalSupply()": {
        "details": "See {IERC20-totalSupply}."
      },
      "transfer(address,uint256)": {
        "details": "See {IERC20-transfer}. Requirements: - `recipient` cannot be the zero address. - the caller must have a balance of at least `amount`."
      },
      "transferFrom(address,address,uint256)": {
        "details": "See {IERC20-transferFrom}. Emits an {Approval} event indicating the updated allowance. This is not required by the EIP. See the note at the beginning of {ERC20}. Requirements: - `sender` and `recipient` cannot be the zero address. - `sender` must have a balance of at least `amount`. - the caller must have allowance for ``sender``'s tokens of at least `amount`."
      },
      "transferOwnership(address)": {
        "details": "Transfers ownership of the contract to a new account (`newOwner`). Can only be called by the current owner."
      }
    },
    "version": 1
  },
  "userdoc": {
    "kind": "user",
    "methods": {},
    "version": 1
  }
}