{
  "contractName": "Stakeable",
  "abi": [
    {
      "inputs": [],
      "stateMutability": "nonpayable",
      "type": "constructor"
    },
    {
      "anonymous": false,
      "inputs": [
        {
          "indexed": true,
          "internalType": "address",
          "name": "user",
          "type": "address"
        },
        {
          "indexed": false,
          "internalType": "uint256",
          "name": "amount",
          "type": "uint256"
        },
        {
          "indexed": false,
          "internalType": "uint256",
          "name": "index",
          "type": "uint256"
        },
        {
          "indexed": false,
          "internalType": "uint256",
          "name": "timestamp",
          "type": "uint256"
        }
      ],
      "name": "Staked",
      "type": "event"
    },
    {
      "inputs": [
        {
          "internalType": "address",
          "name": "_staker",
          "type": "address"
        }
      ],
      "name": "hasStake",
      "outputs": [
        {
          "components": [
            {
              "internalType": "uint256",
              "name": "total_amount",
              "type": "uint256"
            },
            {
              "components": [
                {
                  "internalType": "address",
                  "name": "user",
                  "type": "address"
                },
                {
                  "internalType": "uint256",
                  "name": "amount",
                  "type": "uint256"
                },
                {
                  "internalType": "uint256",
                  "name": "since",
                  "type": "uint256"
                },
                {
                  "internalType": "uint256",
                  "name": "claimable",
                  "type": "uint256"
                },
                {
                  "internalType": "uint256",
                  "name": "toWithdraw",
                  "type": "uint256"
                }
              ],
              "internalType": "struct Stakeable.Stake[]",
              "name": "stakes",
              "type": "tuple[]"
            }
          ],
          "internalType": "struct Stakeable.StakingSummary",
          "name": "",
          "type": "tuple"
        }
      ],
      "stateMutability": "view",
      "type": "function"
    }
  ],
  "bytecode": "0x608060405234801561001057600080fd5b506000600181600181540180825580915050039060005260206000209050506107c68061003e6000396000f3fe608060405234801561001057600080fd5b506004361061002b5760003560e01c8063e73e14bf14610030575b600080fd5b61004a6004803603810190610045919061040d565b610060565b604051610057919061056f565b60405180910390f35b6100686103de565b6000806040518060400160405280600081526020016000600160008873ffffffffffffffffffffffffffffffffffffffff1673ffffffffffffffffffffffffffffffffffffffff16815260200190815260200160002054815481106100f6577f4e487b7100000000000000000000000000000000000000000000000000000000600052603260045260246000fd5b9060005260206000209060020201600101805480602002602001604051908101604052809291908181526020016000905b828210156101d757838290600052602060002090600502016040518060a00160405290816000820160009054906101000a900473ffffffffffffffffffffffffffffffffffffffff1673ffffffffffffffffffffffffffffffffffffffff1673ffffffffffffffffffffffffffffffffffffffff16815260200160018201548152602001600282015481526020016003820154815260200160048201548152505081526020019060010190610127565b50505050815250905060005b8160200151518110156102fa57600061023f83602001518381518110610232577f4e487b7100000000000000000000000000000000000000000000000000000000600052603260045260246000fd5b602002602001015161030f565b9050808360200151838151811061027f577f4e487b7100000000000000000000000000000000000000000000000000000000600052603260045260246000fd5b60200260200101516060018181525050826020015182815181106102cc577f4e487b7100000000000000000000000000000000000000000000000000000000600052603260045260246000fd5b602002602001015160200151846102e391906105ca565b9350506001816102f391906105ca565b90506101e3565b50818160000181815250508092505050919050565b600080600083602001519050606481101561032d57600f9150610377565b6064811015801561034057506103e88111155b1561034e5760109150610376565b6103e8811015801561036257506105dc8111155b156103705760119150610375565b601291505b5b5b6000610e1085604001514261038c91906106ab565b6103969190610620565b90506000612238905060008160646103ae9190610651565b9050808585856103be9190610651565b6103c89190610651565b6103d29190610620565b95505050505050919050565b604051806040016040528060008152602001606081525090565b60008135905061040781610779565b92915050565b60006020828403121561041f57600080fd5b600061042d848285016103f8565b91505092915050565b600061044283836104bb565b60a08301905092915050565b610457816106df565b82525050565b6000610468826105a1565b61047281856105b9565b935061047d83610591565b8060005b838110156104ae5781516104958882610436565b97506104a0836105ac565b925050600181019050610481565b5085935050505092915050565b60a0820160008201516104d1600085018261044e565b5060208201516104e46020850182610560565b5060408201516104f76040850182610560565b50606082015161050a6060850182610560565b50608082015161051d6080850182610560565b50505050565b600060408301600083015161053b6000860182610560565b5060208301518482036020860152610553828261045d565b9150508091505092915050565b61056981610711565b82525050565b600060208201905081810360008301526105898184610523565b905092915050565b6000819050602082019050919050565b600081519050919050565b6000602082019050919050565b600082825260208201905092915050565b60006105d582610711565b91506105e083610711565b9250827fffffffffffffffffffffffffffffffffffffffffffffffffffffffffffffffff038211156106155761061461071b565b5b828201905092915050565b600061062b82610711565b915061063683610711565b9250826106465761064561074a565b5b828204905092915050565b600061065c82610711565b915061066783610711565b9250817fffffffffffffffffffffffffffffffffffffffffffffffffffffffffffffffff04831182151516156106a05761069f61071b565b5b828202905092915050565b60006106b682610711565b91506106c183610711565b9250828210156106d4576106d361071b565b5b828203905092915050565b60006106ea826106f1565b9050919050565b600073ffffffffffffffffffffffffffffffffffffffff82169050919050565b6000819050919050565b7f4e487b7100000000000000000000000000000000000000000000000000000000600052601160045260246000fd5b7f4e487b7100000000000000000000000000000000000000000000000000000000600052601260045260246000fd5b610782816106df565b811461078d57600080fd5b5056fea264697066735822122099a188394d68a557d60067a129ce95e6993740f8ce59da3418e9f68f72d3753064736f6c63430008040033",
  "immutableReferences": {},
  "source": "// SPDX-License-Identifier: MIT\r\npragma solidity ^0.8.4;\r\n\r\ncontract Stakeable{\r\n    constructor() {\r\n        stakeholders.push();\r\n    }\r\n\r\n    struct Stakeholder{\r\n      address user;\r\n      Stake[] address_stakes; //Why \"address_stakes\" name?\r\n    }\r\n\r\n    struct Stake {\r\n      address user; //Why we need address of user here, when we have it on stakeholder struct?\r\n      uint amount;\r\n      uint since;\r\n      uint256 claimable;\r\n      uint256 toWithdraw;\r\n    }\r\n\r\n    struct StakingSummary{\r\n         uint256 total_amount;\r\n         Stake[] stakes;\r\n     }\r\n\r\n    \r\n    \r\n    Stakeholder[] internal stakeholders;\r\n\r\n    mapping(address => uint256) internal stakes;\r\n\r\n    event Staked(address indexed user, uint256 amount, uint256 index, uint256 timestamp);\r\n\r\n\r\n\r\n    function _addSteakholder(address staker) internal returns (uint256) {\r\n        require(staker > address(0), \"Cannot stake from zero address\");\r\n\r\n        stakeholders.push();\r\n        uint256 userIndex = stakeholders.length - 1;\r\n        stakeholders[userIndex].user = staker;\r\n        stakes[staker] = userIndex;\r\n        return userIndex; \r\n    }\r\n\r\n    function _stake(uint256 _amount) internal {\r\n\r\n        uint256 index = stakes[msg.sender];\r\n        uint256 timestamp = block.timestamp;\r\n\r\n        if(index == 0){\r\n            index = _addSteakholder(msg.sender);\r\n        }\r\n\r\n        stakeholders[index].address_stakes.push(Stake({\r\n            user: msg.sender, \r\n            amount: _amount, \r\n            since: timestamp,\r\n            claimable: 0,\r\n            toWithdraw: 0\r\n            })\r\n        );\r\n\r\n        emit Staked(msg.sender, _amount, index, timestamp);\r\n    }\r\n\r\n    function _claim(uint256 index) internal {\r\n        uint256 user_index = stakes[msg.sender];\r\n\r\n        Stake memory current_stake = stakeholders[user_index].address_stakes[index];\r\n\r\n        require(index < stakeholders[user_index].address_stakes.length, \"Non-existent stake\");\r\n\r\n         uint256 reward = calculateReward(current_stake);\r\n\r\n         if(current_stake.amount != 0){\r\n            stakeholders[user_index].address_stakes[index].toWithdraw = reward;\r\n            stakeholders[user_index].address_stakes[index].since = block.timestamp; \r\n         }\r\n    }\r\n\r\n    function _withdraw(uint amount, uint index) internal returns(uint256){\r\n        uint256 user_index = stakes[msg.sender];\r\n\r\n        Stake memory current_stake = stakeholders[user_index].address_stakes[index];\r\n\r\n        require(current_stake.toWithdraw >= amount, \"Staking: Cannot withdraw more that was claimed\");\r\n\r\n        bool canWithdraw = block.timestamp - current_stake.since > 1 days;\r\n        if (canWithdraw) {\r\n            stakeholders[user_index].address_stakes[index].toWithdraw -= amount;\r\n            return amount;\r\n        } else {\r\n            return 0;\r\n        }\r\n        \r\n    }\r\n\r\n    \r\n\r\n    function _withdrawStake(uint256 amount, uint256 index) internal returns(uint256){\r\n        uint256 user_index = stakes[msg.sender];\r\n\r\n        Stake memory current_stake = stakeholders[user_index].address_stakes[index];\r\n\r\n        require(current_stake.amount >= amount, \"Staking: Cannot withdraw more than you have staked\");\r\n\r\n         uint256 reward = calculateReward(current_stake);\r\n         current_stake.amount = current_stake.amount - amount;\r\n         if(current_stake.amount == 0){\r\n             delete stakeholders[user_index].address_stakes[index];\r\n         }else {\r\n            stakeholders[user_index].address_stakes[index].amount = current_stake.amount;\r\n            stakeholders[user_index].address_stakes[index].since = block.timestamp;    \r\n         }\r\n\r\n         return amount+reward;\r\n\r\n     }\r\n\r\n\r\n    function calculateReward(Stake memory _current_stake) internal view returns(uint256){\r\n\r\n        uint256 APY;\r\n        uint256 amount = _current_stake.amount;\r\n        if (amount < 100) {\r\n            APY = 15;\r\n        } else if (amount >= 100 && amount <= 1000) {\r\n            APY = 16;\r\n        } else if (amount >= 1000 && amount <= 1500) {\r\n            APY = 17;\r\n        } else {\r\n            APY = 18;\r\n        }\r\n        \r\n        uint256 diff = (block.timestamp - _current_stake.since) / 1 hours;\r\n        uint256 hoursInYear = 8760;\r\n\r\n        uint x = 100 * hoursInYear;\r\n        return (diff  * amount * APY) / x;\r\n    }\r\n\r\n    function hasStake(address _staker) public view returns(StakingSummary memory){\r\n        uint256 totalStakeAmount; \r\n\r\n        StakingSummary memory summary = StakingSummary({\r\n            total_amount: 0, \r\n            stakes: stakeholders[stakes[_staker]].address_stakes\r\n        });\r\n\r\n        for (uint256 s = 0; s < summary.stakes.length; s += 1){\r\n           uint256 availableReward = calculateReward(summary.stakes[s]);\r\n           summary.stakes[s].claimable = availableReward;\r\n           totalStakeAmount = totalStakeAmount + summary.stakes[s].amount;\r\n       }\r\n\r\n       summary.total_amount = totalStakeAmount;\r\n        return summary;\r\n    }\r\n\r\n}\r\n",
  "sourcePath": "D:\\Mashka\\solidity\\Eth-Solidity-learn\\Assignment\\contracts\\Stakeable.sol",
  "compiler": {
    "name": "solc",
    "version": "0.8.4+commit.c7e474f2.Emscripten.clang"
  },
  "schemaVersion": "3.4.3",
  "updatedAt": "2021-09-20T07:31:19.587Z",
  "devdoc": {
    "kind": "dev",
    "methods": {},
    "version": 1
  },
  "userdoc": {
    "kind": "user",
    "methods": {},
    "version": 1
  }
}