{
  "_format": "hh-sol-artifact-1",
  "contractName": "MashToken",
  "sourceName": "contracts/MashToken.sol",
  "abi": [
    {
      "inputs": [
        {
          "internalType": "uint256",
          "name": "initialSupply",
          "type": "uint256"
        }
      ],
      "stateMutability": "nonpayable",
      "type": "constructor"
    },
    {
      "anonymous": false,
      "inputs": [
        {
          "indexed": true,
          "internalType": "address",
          "name": "owner",
          "type": "address"
        },
        {
          "indexed": true,
          "internalType": "address",
          "name": "spender",
          "type": "address"
        },
        {
          "indexed": false,
          "internalType": "uint256",
          "name": "value",
          "type": "uint256"
        }
      ],
      "name": "Approval",
      "type": "event"
    },
    {
      "anonymous": false,
      "inputs": [
        {
          "indexed": true,
          "internalType": "address",
          "name": "previousOwner",
          "type": "address"
        },
        {
          "indexed": true,
          "internalType": "address",
          "name": "newOwner",
          "type": "address"
        }
      ],
      "name": "OwnershipTransferred",
      "type": "event"
    },
    {
      "anonymous": false,
      "inputs": [
        {
          "indexed": true,
          "internalType": "address",
          "name": "user",
          "type": "address"
        },
        {
          "indexed": false,
          "internalType": "uint256",
          "name": "amount",
          "type": "uint256"
        },
        {
          "indexed": false,
          "internalType": "uint256",
          "name": "index",
          "type": "uint256"
        },
        {
          "indexed": false,
          "internalType": "uint256",
          "name": "timestamp",
          "type": "uint256"
        }
      ],
      "name": "Staked",
      "type": "event"
    },
    {
      "anonymous": false,
      "inputs": [
        {
          "indexed": true,
          "internalType": "address",
          "name": "from",
          "type": "address"
        },
        {
          "indexed": true,
          "internalType": "address",
          "name": "to",
          "type": "address"
        },
        {
          "indexed": false,
          "internalType": "uint256",
          "name": "value",
          "type": "uint256"
        }
      ],
      "name": "Transfer",
      "type": "event"
    },
    {
      "inputs": [
        {
          "internalType": "address",
          "name": "owner",
          "type": "address"
        },
        {
          "internalType": "address",
          "name": "spender",
          "type": "address"
        }
      ],
      "name": "allowance",
      "outputs": [
        {
          "internalType": "uint256",
          "name": "",
          "type": "uint256"
        }
      ],
      "stateMutability": "view",
      "type": "function"
    },
    {
      "inputs": [
        {
          "internalType": "address",
          "name": "spender",
          "type": "address"
        },
        {
          "internalType": "uint256",
          "name": "amount",
          "type": "uint256"
        }
      ],
      "name": "approve",
      "outputs": [
        {
          "internalType": "bool",
          "name": "",
          "type": "bool"
        }
      ],
      "stateMutability": "nonpayable",
      "type": "function"
    },
    {
      "inputs": [
        {
          "internalType": "address",
          "name": "account",
          "type": "address"
        }
      ],
      "name": "balanceOf",
      "outputs": [
        {
          "internalType": "uint256",
          "name": "",
          "type": "uint256"
        }
      ],
      "stateMutability": "view",
      "type": "function"
    },
    {
      "inputs": [],
      "name": "claim",
      "outputs": [],
      "stateMutability": "nonpayable",
      "type": "function"
    },
    {
      "inputs": [
        {
          "internalType": "uint256",
          "name": "amount",
          "type": "uint256"
        }
      ],
      "name": "claimAndWithdraw",
      "outputs": [],
      "stateMutability": "nonpayable",
      "type": "function"
    },
    {
      "inputs": [],
      "name": "decimals",
      "outputs": [
        {
          "internalType": "uint8",
          "name": "",
          "type": "uint8"
        }
      ],
      "stateMutability": "view",
      "type": "function"
    },
    {
      "inputs": [
        {
          "internalType": "address",
          "name": "spender",
          "type": "address"
        },
        {
          "internalType": "uint256",
          "name": "subtractedValue",
          "type": "uint256"
        }
      ],
      "name": "decreaseAllowance",
      "outputs": [
        {
          "internalType": "bool",
          "name": "",
          "type": "bool"
        }
      ],
      "stateMutability": "nonpayable",
      "type": "function"
    },
    {
      "inputs": [
        {
          "internalType": "address",
          "name": "spender",
          "type": "address"
        },
        {
          "internalType": "uint256",
          "name": "addedValue",
          "type": "uint256"
        }
      ],
      "name": "increaseAllowance",
      "outputs": [
        {
          "internalType": "bool",
          "name": "",
          "type": "bool"
        }
      ],
      "stateMutability": "nonpayable",
      "type": "function"
    },
    {
      "inputs": [],
      "name": "name",
      "outputs": [
        {
          "internalType": "string",
          "name": "",
          "type": "string"
        }
      ],
      "stateMutability": "view",
      "type": "function"
    },
    {
      "inputs": [],
      "name": "owner",
      "outputs": [
        {
          "internalType": "address",
          "name": "",
          "type": "address"
        }
      ],
      "stateMutability": "view",
      "type": "function"
    },
    {
      "inputs": [],
      "name": "renounceOwnership",
      "outputs": [],
      "stateMutability": "nonpayable",
      "type": "function"
    },
    {
      "inputs": [
        {
          "internalType": "uint256",
          "name": "_amount",
          "type": "uint256"
        }
      ],
      "name": "stake",
      "outputs": [],
      "stateMutability": "nonpayable",
      "type": "function"
    },
    {
      "inputs": [],
      "name": "stakingSummary",
      "outputs": [
        {
          "components": [
            {
              "internalType": "uint256",
              "name": "total_amount",
              "type": "uint256"
            },
            {
              "components": [
                {
                  "internalType": "address",
                  "name": "user",
                  "type": "address"
                },
                {
                  "internalType": "uint256",
                  "name": "amount",
                  "type": "uint256"
                },
                {
                  "internalType": "uint256",
                  "name": "since",
                  "type": "uint256"
                },
                {
                  "internalType": "uint256",
                  "name": "claimable",
                  "type": "uint256"
                }
              ],
              "internalType": "struct Stakeable.Stake[]",
              "name": "stakes",
              "type": "tuple[]"
            }
          ],
          "internalType": "struct Stakeable.StakingSummary",
          "name": "",
          "type": "tuple"
        }
      ],
      "stateMutability": "view",
      "type": "function"
    },
    {
      "inputs": [],
      "name": "symbol",
      "outputs": [
        {
          "internalType": "string",
          "name": "",
          "type": "string"
        }
      ],
      "stateMutability": "view",
      "type": "function"
    },
    {
      "inputs": [],
      "name": "totalSupply",
      "outputs": [
        {
          "internalType": "uint256",
          "name": "",
          "type": "uint256"
        }
      ],
      "stateMutability": "view",
      "type": "function"
    },
    {
      "inputs": [
        {
          "internalType": "address",
          "name": "recipient",
          "type": "address"
        },
        {
          "internalType": "uint256",
          "name": "amount",
          "type": "uint256"
        }
      ],
      "name": "transfer",
      "outputs": [
        {
          "internalType": "bool",
          "name": "",
          "type": "bool"
        }
      ],
      "stateMutability": "nonpayable",
      "type": "function"
    },
    {
      "inputs": [
        {
          "internalType": "address",
          "name": "sender",
          "type": "address"
        },
        {
          "internalType": "address",
          "name": "recipient",
          "type": "address"
        },
        {
          "internalType": "uint256",
          "name": "amount",
          "type": "uint256"
        }
      ],
      "name": "transferFrom",
      "outputs": [
        {
          "internalType": "bool",
          "name": "",
          "type": "bool"
        }
      ],
      "stateMutability": "nonpayable",
      "type": "function"
    },
    {
      "inputs": [
        {
          "internalType": "address",
          "name": "newOwner",
          "type": "address"
        }
      ],
      "name": "transferOwnership",
      "outputs": [],
      "stateMutability": "nonpayable",
      "type": "function"
    },
    {
      "inputs": [],
      "name": "withdraw",
      "outputs": [],
      "stateMutability": "nonpayable",
      "type": "function"
    }
  ],
  "bytecode": "0x60806040523480156200001157600080fd5b5060405162003e9738038062003e97833981810160405281019062000037919062000446565b6040518060400160405280600981526020017f4d617368546f6b656e00000000000000000000000000000000000000000000008152506040518060400160405280600481526020017f4d415348000000000000000000000000000000000000000000000000000000008152508160039080519060200190620000bb9291906200037f565b508060049080519060200190620000d49291906200037f565b505050620000f7620000eb6200012e60201b60201c565b6200013660201b60201c565b600660018160018154018082558091505003906000526020600020905050620001273382620001fc60201b60201c565b5062000638565b600033905090565b6000600560009054906101000a900473ffffffffffffffffffffffffffffffffffffffff16905081600560006101000a81548173ffffffffffffffffffffffffffffffffffffffff021916908373ffffffffffffffffffffffffffffffffffffffff1602179055508173ffffffffffffffffffffffffffffffffffffffff168173ffffffffffffffffffffffffffffffffffffffff167f8be0079c531659141344cd1fd0a4f28419497f9722a3daafe3b4186f6b6457e060405160405180910390a35050565b600073ffffffffffffffffffffffffffffffffffffffff168273ffffffffffffffffffffffffffffffffffffffff1614156200026f576040517f08c379a00000000000000000000000000000000000000000000000000000000081526004016200026690620004aa565b60405180910390fd5b62000283600083836200037560201b60201c565b8060026000828254620002979190620004fa565b92505081905550806000808473ffffffffffffffffffffffffffffffffffffffff1673ffffffffffffffffffffffffffffffffffffffff1681526020019081526020016000206000828254620002ee9190620004fa565b925050819055508173ffffffffffffffffffffffffffffffffffffffff16600073ffffffffffffffffffffffffffffffffffffffff167fddf252ad1be2c89b69c2b068fc378daa952ba7f163c4a11628f55a4df523b3ef83604051620003559190620004cc565b60405180910390a362000371600083836200037a60201b60201c565b5050565b505050565b505050565b8280546200038d9062000561565b90600052602060002090601f016020900481019282620003b15760008555620003fd565b82601f10620003cc57805160ff1916838001178555620003fd565b82800160010185558215620003fd579182015b82811115620003fc578251825591602001919060010190620003df565b5b5090506200040c919062000410565b5090565b5b808211156200042b57600081600090555060010162000411565b5090565b60008151905062000440816200061e565b92915050565b6000602082840312156200045957600080fd5b600062000469848285016200042f565b91505092915050565b600062000481601f83620004e9565b91506200048e82620005f5565b602082019050919050565b620004a48162000557565b82525050565b60006020820190508181036000830152620004c58162000472565b9050919050565b6000602082019050620004e3600083018462000499565b92915050565b600082825260208201905092915050565b6000620005078262000557565b9150620005148362000557565b9250827fffffffffffffffffffffffffffffffffffffffffffffffffffffffffffffffff038211156200054c576200054b62000597565b5b828201905092915050565b6000819050919050565b600060028204905060018216806200057a57607f821691505b60208210811415620005915762000590620005c6565b5b50919050565b7f4e487b7100000000000000000000000000000000000000000000000000000000600052601160045260246000fd5b7f4e487b7100000000000000000000000000000000000000000000000000000000600052602260045260246000fd5b7f45524332303a206d696e7420746f20746865207a65726f206164647265737300600082015250565b620006298162000557565b81146200063557600080fd5b50565b61384f80620006486000396000f3fe608060405234801561001057600080fd5b50600436106101215760003560e01c8063715018a6116100ad578063a89a65b811610071578063a89a65b8146102e6578063a9059cbb14610304578063dd62ed3e14610334578063f2fde38b14610364578063f62b46c91461038057610121565b8063715018a6146102545780638da5cb5b1461025e57806395d89b411461027c578063a457c2d71461029a578063a694fc3a146102ca57610121565b8063313ce567116100f4578063313ce567146101c257806339509351146101e05780633ccfd60b146102105780634e71d92d1461021a57806370a082311461022457610121565b806306fdde0314610126578063095ea7b31461014457806318160ddd1461017457806323b872dd14610192575b600080fd5b61012e61039c565b60405161013b9190612c8d565b60405180910390f35b61015e6004803603810190610159919061279b565b61042e565b60405161016b9190612c72565b60405180910390f35b61017c61044c565b6040516101899190612f51565b60405180910390f35b6101ac60048036038101906101a7919061274c565b610456565b6040516101b99190612c72565b60405180910390f35b6101ca61054e565b6040516101d79190612fa3565b60405180910390f35b6101fa60048036038101906101f5919061279b565b610557565b6040516102079190612c72565b60405180910390f35b610218610603565b005b61022261061c565b005b61023e600480360381019061023991906126e7565b610626565b60405161024b9190612f51565b60405180910390f35b61025c61066e565b005b6102666106f6565b6040516102739190612c57565b60405180910390f35b610284610720565b6040516102919190612c8d565b60405180910390f35b6102b460048036038101906102af919061279b565b6107b2565b6040516102c19190612c72565b60405180910390f35b6102e460048036038101906102df91906127d7565b61089d565b005b6102ee610941565b6040516102fb9190612f2f565b60405180910390f35b61031e6004803603810190610319919061279b565b610956565b60405161032b9190612c72565b60405180910390f35b61034e60048036038101906103499190612710565b610974565b60405161035b9190612f51565b60405180910390f35b61037e600480360381019061037991906126e7565b6109fb565b005b61039a600480360381019061039591906127d7565b610af3565b005b6060600380546103ab906131b0565b80601f01602080910402602001604051908101604052809291908181526020018280546103d7906131b0565b80156104245780601f106103f957610100808354040283529160200191610424565b820191906000526020600020905b81548152906001019060200180831161040757829003601f168201915b5050505050905090565b600061044261043b610aff565b8484610b07565b6001905092915050565b6000600254905090565b6000610463848484610cd2565b6000600160008673ffffffffffffffffffffffffffffffffffffffff1673ffffffffffffffffffffffffffffffffffffffff16815260200190815260200160002060006104ae610aff565b73ffffffffffffffffffffffffffffffffffffffff1673ffffffffffffffffffffffffffffffffffffffff1681526020019081526020016000205490508281101561052e576040517f08c379a000000000000000000000000000000000000000000000000000000000815260040161052590612def565b60405180910390fd5b6105428561053a610aff565b858403610b07565b60019150509392505050565b60006012905090565b60006105f9610564610aff565b848460016000610572610aff565b73ffffffffffffffffffffffffffffffffffffffff1673ffffffffffffffffffffffffffffffffffffffff16815260200190815260200160002060008873ffffffffffffffffffffffffffffffffffffffff1673ffffffffffffffffffffffffffffffffffffffff168152602001908152602001600020546105f49190613013565b610b07565b6001905092915050565b600061060d610f53565b905061061933826111ae565b50565b61062461130e565b565b60008060008373ffffffffffffffffffffffffffffffffffffffff1673ffffffffffffffffffffffffffffffffffffffff168152602001908152602001600020549050919050565b610676610aff565b73ffffffffffffffffffffffffffffffffffffffff166106946106f6565b73ffffffffffffffffffffffffffffffffffffffff16146106ea576040517f08c379a00000000000000000000000000000000000000000000000000000000081526004016106e190612e0f565b60405180910390fd5b6106f46000611854565b565b6000600560009054906101000a900473ffffffffffffffffffffffffffffffffffffffff16905090565b60606004805461072f906131b0565b80601f016020809104026020016040519081016040528092919081815260200182805461075b906131b0565b80156107a85780601f1061077d576101008083540402835291602001916107a8565b820191906000526020600020905b81548152906001019060200180831161078b57829003601f168201915b5050505050905090565b600080600160006107c1610aff565b73ffffffffffffffffffffffffffffffffffffffff1673ffffffffffffffffffffffffffffffffffffffff16815260200190815260200160002060008573ffffffffffffffffffffffffffffffffffffffff1673ffffffffffffffffffffffffffffffffffffffff1681526020019081526020016000205490508281101561087e576040517f08c379a000000000000000000000000000000000000000000000000000000000815260040161087590612eef565b60405180910390fd5b610892610889610aff565b85858403610b07565b600191505092915050565b6108a633610626565b8111156108e8576040517f08c379a00000000000000000000000000000000000000000000000000000000081526004016108df90612daf565b60405180910390fd5b6000811161092b576040517f08c379a000000000000000000000000000000000000000000000000000000000815260040161092290612e2f565b60405180910390fd5b6109348161191a565b61093e3382611ae2565b50565b610949612629565b610951611cb9565b905090565b600061096a610963610aff565b8484610cd2565b6001905092915050565b6000600160008473ffffffffffffffffffffffffffffffffffffffff1673ffffffffffffffffffffffffffffffffffffffff16815260200190815260200160002060008373ffffffffffffffffffffffffffffffffffffffff1673ffffffffffffffffffffffffffffffffffffffff16815260200190815260200160002054905092915050565b610a03610aff565b73ffffffffffffffffffffffffffffffffffffffff16610a216106f6565b73ffffffffffffffffffffffffffffffffffffffff1614610a77576040517f08c379a0000000000000000000000000000000000000000000000000000000008152600401610a6e90612e0f565b60405180910390fd5b600073ffffffffffffffffffffffffffffffffffffffff168173ffffffffffffffffffffffffffffffffffffffff161415610ae7576040517f08c379a0000000000000000000000000000000000000000000000000000000008152600401610ade90612d0f565b60405180910390fd5b610af081611854565b50565b610afc81611fa6565b50565b600033905090565b600073ffffffffffffffffffffffffffffffffffffffff168373ffffffffffffffffffffffffffffffffffffffff161415610b77576040517f08c379a0000000000000000000000000000000000000000000000000000000008152600401610b6e90612ecf565b60405180910390fd5b600073ffffffffffffffffffffffffffffffffffffffff168273ffffffffffffffffffffffffffffffffffffffff161415610be7576040517f08c379a0000000000000000000000000000000000000000000000000000000008152600401610bde90612d2f565b60405180910390fd5b80600160008573ffffffffffffffffffffffffffffffffffffffff1673ffffffffffffffffffffffffffffffffffffffff16815260200190815260200160002060008473ffffffffffffffffffffffffffffffffffffffff1673ffffffffffffffffffffffffffffffffffffffff168152602001908152602001600020819055508173ffffffffffffffffffffffffffffffffffffffff168373ffffffffffffffffffffffffffffffffffffffff167f8c5be1e5ebec7d5bd14f71427d1e84f3dd0314c0f7b2291e5b200ac8c7c3b92583604051610cc59190612f51565b60405180910390a3505050565b600073ffffffffffffffffffffffffffffffffffffffff168373ffffffffffffffffffffffffffffffffffffffff161415610d42576040517f08c379a0000000000000000000000000000000000000000000000000000000008152600401610d3990612eaf565b60405180910390fd5b600073ffffffffffffffffffffffffffffffffffffffff168273ffffffffffffffffffffffffffffffffffffffff161415610db2576040517f08c379a0000000000000000000000000000000000000000000000000000000008152600401610da990612caf565b60405180910390fd5b610dbd8383836123db565b60008060008573ffffffffffffffffffffffffffffffffffffffff1673ffffffffffffffffffffffffffffffffffffffff16815260200190815260200160002054905081811015610e43576040517f08c379a0000000000000000000000000000000000000000000000000000000008152600401610e3a90612d8f565b60405180910390fd5b8181036000808673ffffffffffffffffffffffffffffffffffffffff1673ffffffffffffffffffffffffffffffffffffffff16815260200190815260200160002081905550816000808573ffffffffffffffffffffffffffffffffffffffff1673ffffffffffffffffffffffffffffffffffffffff1681526020019081526020016000206000828254610ed69190613013565b925050819055508273ffffffffffffffffffffffffffffffffffffffff168473ffffffffffffffffffffffffffffffffffffffff167fddf252ad1be2c89b69c2b068fc378daa952ba7f163c4a11628f55a4df523b3ef84604051610f3a9190612f51565b60405180910390a3610f4d8484846123e0565b50505050565b600080600760003373ffffffffffffffffffffffffffffffffffffffff1673ffffffffffffffffffffffffffffffffffffffff168152602001908152602001600020549050600080821415610fdd576040517f08c379a0000000000000000000000000000000000000000000000000000000008152600401610fd490612d6f565b60405180910390fd5b620151806006838154811061101b577f4e487b7100000000000000000000000000000000000000000000000000000000600052603260045260246000fd5b9060005260206000209060040201600201544261103891906130f4565b11611078576040517f08c379a000000000000000000000000000000000000000000000000000000000815260040161106f90612e8f565b60405180910390fd5b6000600683815481106110b4577f4e487b7100000000000000000000000000000000000000000000000000000000600052603260045260246000fd5b9060005260206000209060040201600101541415611107576040517f08c379a00000000000000000000000000000000000000000000000000000000081526004016110fe90612cef565b60405180910390fd5b60068281548110611141577f4e487b7100000000000000000000000000000000000000000000000000000000600052603260045260246000fd5b9060005260206000209060040201600101549050600060068381548110611191577f4e487b7100000000000000000000000000000000000000000000000000000000600052603260045260246000fd5b906000526020600020906004020160010181905550809250505090565b600073ffffffffffffffffffffffffffffffffffffffff168273ffffffffffffffffffffffffffffffffffffffff16141561121e576040517f08c379a000000000000000000000000000000000000000000000000000000000815260040161121590612f0f565b60405180910390fd5b61122a600083836123db565b806002600082825461123c9190613013565b92505081905550806000808473ffffffffffffffffffffffffffffffffffffffff1673ffffffffffffffffffffffffffffffffffffffff16815260200190815260200160002060008282546112919190613013565b925050819055508173ffffffffffffffffffffffffffffffffffffffff16600073ffffffffffffffffffffffffffffffffffffffff167fddf252ad1be2c89b69c2b068fc378daa952ba7f163c4a11628f55a4df523b3ef836040516112f69190612f51565b60405180910390a361130a600083836123e0565b5050565b6000600760003373ffffffffffffffffffffffffffffffffffffffff1673ffffffffffffffffffffffffffffffffffffffff1681526020019081526020016000205490506000811415611396576040517f08c379a000000000000000000000000000000000000000000000000000000000815260040161138d90612d6f565b60405180910390fd5b6000600682815481106113d2577f4e487b7100000000000000000000000000000000000000000000000000000000600052603260045260246000fd5b9060005260206000209060040201600301805480602002602001604051908101604052809291908181526020016000905b828210156114a957838290600052602060002090600402016040518060800160405290816000820160009054906101000a900473ffffffffffffffffffffffffffffffffffffffff1673ffffffffffffffffffffffffffffffffffffffff1673ffffffffffffffffffffffffffffffffffffffff168152602001600182015481526020016002820154815260200160038201548152505081526020019060010190611403565b50505050905060008060005b835181101561163157620151808482815181106114fb577f4e487b7100000000000000000000000000000000000000000000000000000000600052603260045260246000fd5b6020026020010151604001514261151291906130f4565b11156115cb576000611563858381518110611556577f4e487b7100000000000000000000000000000000000000000000000000000000600052603260045260246000fd5b60200260200101516123e5565b905080846115719190613013565b93508482815181106115ac577f4e487b7100000000000000000000000000000000000000000000000000000000600052603260045260246000fd5b602002602001015160200151836115c39190613013565b92505061161e565b838181518110611604577f4e487b7100000000000000000000000000000000000000000000000000000000600052603260045260246000fd5b6020026020010151602001518261161b9190613013565b91505b8080611629906131e2565b9150506114b5565b506006848154811061166c577f4e487b7100000000000000000000000000000000000000000000000000000000600052603260045260246000fd5b906000526020600020906004020160030160006116899190612643565b600684815481106116c3577f4e487b7100000000000000000000000000000000000000000000000000000000600052603260045260246000fd5b906000526020600020906004020160030160405180608001604052803373ffffffffffffffffffffffffffffffffffffffff1681526020018381526020014281526020016000815250908060018154018082558091505060019003906000526020600020906004020160009091909190915060008201518160000160006101000a81548173ffffffffffffffffffffffffffffffffffffffff021916908373ffffffffffffffffffffffffffffffffffffffff160217905550602082015181600101556040820151816002015560608201518160030155505081600685815481106117d7577f4e487b7100000000000000000000000000000000000000000000000000000000600052603260045260246000fd5b906000526020600020906004020160010160008282546117f79190613013565b925050819055504260068581548110611839577f4e487b7100000000000000000000000000000000000000000000000000000000600052603260045260246000fd5b90600052602060002090600402016002018190555050505050565b6000600560009054906101000a900473ffffffffffffffffffffffffffffffffffffffff16905081600560006101000a81548173ffffffffffffffffffffffffffffffffffffffff021916908373ffffffffffffffffffffffffffffffffffffffff1602179055508173ffffffffffffffffffffffffffffffffffffffff168173ffffffffffffffffffffffffffffffffffffffff167f8be0079c531659141344cd1fd0a4f28419497f9722a3daafe3b4186f6b6457e060405160405180910390a35050565b6000600760003373ffffffffffffffffffffffffffffffffffffffff1673ffffffffffffffffffffffffffffffffffffffff16815260200190815260200160002054905060004290506000821415611978576119753361245c565b91505b600682815481106119b2577f4e487b7100000000000000000000000000000000000000000000000000000000600052603260045260246000fd5b906000526020600020906004020160030160405180608001604052803373ffffffffffffffffffffffffffffffffffffffff1681526020018581526020018381526020016000815250908060018154018082558091505060019003906000526020600020906004020160009091909190915060008201518160000160006101000a81548173ffffffffffffffffffffffffffffffffffffffff021916908373ffffffffffffffffffffffffffffffffffffffff16021790555060208201518160010155604082015181600201556060820151816003015550503373ffffffffffffffffffffffffffffffffffffffff167fb4caaf29adda3eefee3ad552a8e85058589bf834c7466cae4ee58787f70589ed848484604051611ad593929190612f6c565b60405180910390a2505050565b600073ffffffffffffffffffffffffffffffffffffffff168273ffffffffffffffffffffffffffffffffffffffff161415611b52576040517f08c379a0000000000000000000000000000000000000000000000000000000008152600401611b4990612e6f565b60405180910390fd5b611b5e826000836123db565b60008060008473ffffffffffffffffffffffffffffffffffffffff1673ffffffffffffffffffffffffffffffffffffffff16815260200190815260200160002054905081811015611be4576040517f08c379a0000000000000000000000000000000000000000000000000000000008152600401611bdb90612ccf565b60405180910390fd5b8181036000808573ffffffffffffffffffffffffffffffffffffffff1673ffffffffffffffffffffffffffffffffffffffff168152602001908152602001600020819055508160026000828254611c3b91906130f4565b92505081905550600073ffffffffffffffffffffffffffffffffffffffff168373ffffffffffffffffffffffffffffffffffffffff167fddf252ad1be2c89b69c2b068fc378daa952ba7f163c4a11628f55a4df523b3ef84604051611ca09190612f51565b60405180910390a3611cb4836000846123e0565b505050565b611cc1612629565b600080600760003373ffffffffffffffffffffffffffffffffffffffff1673ffffffffffffffffffffffffffffffffffffffff1681526020019081526020016000205490506000811415611d4a576040517f08c379a0000000000000000000000000000000000000000000000000000000008152600401611d4190612d6f565b60405180910390fd5b600060405180604001604052806000815260200160068481548110611d98577f4e487b7100000000000000000000000000000000000000000000000000000000600052603260045260246000fd5b9060005260206000209060040201600301805480602002602001604051908101604052809291908181526020016000905b82821015611e6f57838290600052602060002090600402016040518060800160405290816000820160009054906101000a900473ffffffffffffffffffffffffffffffffffffffff1673ffffffffffffffffffffffffffffffffffffffff1673ffffffffffffffffffffffffffffffffffffffff168152602001600182015481526020016002820154815260200160038201548152505081526020019060010190611dc9565b50505050815250905060005b816020015151811015611f92576000611ed783602001518381518110611eca577f4e487b7100000000000000000000000000000000000000000000000000000000600052603260045260246000fd5b60200260200101516123e5565b90508083602001518381518110611f17577f4e487b7100000000000000000000000000000000000000000000000000000000600052603260045260246000fd5b6020026020010151606001818152505082602001518281518110611f64577f4e487b7100000000000000000000000000000000000000000000000000000000600052603260045260246000fd5b60200260200101516020015185611f7b9190613013565b945050600181611f8b9190613013565b9050611e7b565b508281600001818152505080935050505090565b611fae61130e565b60008111611ff1576040517f08c379a0000000000000000000000000000000000000000000000000000000008152600401611fe890612e4f565b60405180910390fd5b6000600760003373ffffffffffffffffffffffffffffffffffffffff1673ffffffffffffffffffffffffffffffffffffffff168152602001908152602001600020549050600061203f611cb9565b905082816000015160068481548110612081577f4e487b7100000000000000000000000000000000000000000000000000000000600052603260045260246000fd5b90600052602060002090600402016001015461209d9190613013565b11156120de576040517f08c379a00000000000000000000000000000000000000000000000000000000081526004016120d590612dcf565b60405180910390fd5b60068281548110612118577f4e487b7100000000000000000000000000000000000000000000000000000000600052603260045260246000fd5b90600052602060002090600402016001015483101561219b576000836006848154811061216e577f4e487b7100000000000000000000000000000000000000000000000000000000600052603260045260246000fd5b90600052602060002090600402016001015461218a91906130f4565b90506121958161191a565b50612386565b600682815481106121d5577f4e487b7100000000000000000000000000000000000000000000000000000000600052603260045260246000fd5b9060005260206000209060040201600101548311156123855760006006838154811061222a577f4e487b7100000000000000000000000000000000000000000000000000000000600052603260045260246000fd5b9060005260206000209060040201600101548461224791906130f4565b90508060068481548110612284577f4e487b7100000000000000000000000000000000000000000000000000000000600052603260045260246000fd5b90600052602060002090600402016003016000815481106122ce577f4e487b7100000000000000000000000000000000000000000000000000000000600052603260045260246000fd5b9060005260206000209060040201600101546122ea91906130f4565b60068481548110612324577f4e487b7100000000000000000000000000000000000000000000000000000000600052603260045260246000fd5b906000526020600020906004020160030160008154811061236e577f4e487b7100000000000000000000000000000000000000000000000000000000600052603260045260246000fd5b906000526020600020906004020160010181905550505b5b82600683815481106123c1577f4e487b7100000000000000000000000000000000000000000000000000000000600052603260045260246000fd5b906000526020600020906004020160010181905550505050565b505050565b505050565b600080600f90506000836020015190506000610e1085604001514261240a91906130f4565b6124149190613069565b905060006122389050600081606461242c919061309a565b90508085858561243c919061309a565b612446919061309a565b6124509190613069565b95505050505050919050565b60008073ffffffffffffffffffffffffffffffffffffffff168273ffffffffffffffffffffffffffffffffffffffff1614156124cd576040517f08c379a00000000000000000000000000000000000000000000000000000000081526004016124c490612d4f565b60405180910390fd5b600660018160018154018082558091505003906000526020600020905050600060016006805490506124ff91906130f4565b9050826006828154811061253c577f4e487b7100000000000000000000000000000000000000000000000000000000600052603260045260246000fd5b906000526020600020906004020160000160006101000a81548173ffffffffffffffffffffffffffffffffffffffff021916908373ffffffffffffffffffffffffffffffffffffffff1602179055506000600682815481106125c7577f4e487b7100000000000000000000000000000000000000000000000000000000600052603260045260246000fd5b90600052602060002090600402016001018190555080600760008573ffffffffffffffffffffffffffffffffffffffff1673ffffffffffffffffffffffffffffffffffffffff1681526020019081526020016000208190555080915050919050565b604051806040016040528060008152602001606081525090565b50805460008255600402906000526020600020908101906126649190612667565b50565b5b808211156126b957600080820160006101000a81549073ffffffffffffffffffffffffffffffffffffffff021916905560018201600090556002820160009055600382016000905550600401612668565b5090565b6000813590506126cc816137eb565b92915050565b6000813590506126e181613802565b92915050565b6000602082840312156126f957600080fd5b6000612707848285016126bd565b91505092915050565b6000806040838503121561272357600080fd5b6000612731858286016126bd565b9250506020612742858286016126bd565b9150509250929050565b60008060006060848603121561276157600080fd5b600061276f868287016126bd565b9350506020612780868287016126bd565b9250506040612791868287016126d2565b9150509250925092565b600080604083850312156127ae57600080fd5b60006127bc858286016126bd565b92505060206127cd858286016126d2565b9150509250929050565b6000602082840312156127e957600080fd5b60006127f7848285016126d2565b91505092915050565b600061280c8383612b98565b60808301905092915050565b61282181613128565b82525050565b61283081613128565b82525050565b600061284182612fce565b61284b8185612ff1565b935061285683612fbe565b8060005b8381101561288757815161286e8882612800565b975061287983612fe4565b92505060018101905061285a565b5085935050505092915050565b61289d8161313a565b82525050565b60006128ae82612fd9565b6128b88185613002565b93506128c881856020860161317d565b6128d1816132b8565b840191505092915050565b60006128e9602383613002565b91506128f4826132c9565b604082019050919050565b600061290c602283613002565b915061291782613318565b604082019050919050565b600061292f601383613002565b915061293a82613367565b602082019050919050565b6000612952602683613002565b915061295d82613390565b604082019050919050565b6000612975602283613002565b9150612980826133df565b604082019050919050565b6000612998601e83613002565b91506129a38261342e565b602082019050919050565b60006129bb602183613002565b91506129c682613457565b604082019050919050565b60006129de602683613002565b91506129e9826134a6565b604082019050919050565b6000612a01601f83613002565b9150612a0c826134f5565b602082019050919050565b6000612a24602083613002565b9150612a2f8261351e565b602082019050919050565b6000612a47602883613002565b9150612a5282613547565b604082019050919050565b6000612a6a602083613002565b9150612a7582613596565b602082019050919050565b6000612a8d602683613002565b9150612a98826135bf565b604082019050919050565b6000612ab0601683613002565b9150612abb8261360e565b602082019050919050565b6000612ad3602183613002565b9150612ade82613637565b604082019050919050565b6000612af6603983613002565b9150612b0182613686565b604082019050919050565b6000612b19602583613002565b9150612b24826136d5565b604082019050919050565b6000612b3c602483613002565b9150612b4782613724565b604082019050919050565b6000612b5f602583613002565b9150612b6a82613773565b604082019050919050565b6000612b82601f83613002565b9150612b8d826137c2565b602082019050919050565b608082016000820151612bae6000850182612818565b506020820151612bc16020850182612c2a565b506040820151612bd46040850182612c2a565b506060820151612be76060850182612c2a565b50505050565b6000604083016000830151612c056000860182612c2a565b5060208301518482036020860152612c1d8282612836565b9150508091505092915050565b612c3381613166565b82525050565b612c4281613166565b82525050565b612c5181613170565b82525050565b6000602082019050612c6c6000830184612827565b92915050565b6000602082019050612c876000830184612894565b92915050565b60006020820190508181036000830152612ca781846128a3565b905092915050565b60006020820190508181036000830152612cc8816128dc565b9050919050565b60006020820190508181036000830152612ce8816128ff565b9050919050565b60006020820190508181036000830152612d0881612922565b9050919050565b60006020820190508181036000830152612d2881612945565b9050919050565b60006020820190508181036000830152612d4881612968565b9050919050565b60006020820190508181036000830152612d688161298b565b9050919050565b60006020820190508181036000830152612d88816129ae565b9050919050565b60006020820190508181036000830152612da8816129d1565b9050919050565b60006020820190508181036000830152612dc8816129f4565b9050919050565b60006020820190508181036000830152612de881612a17565b9050919050565b60006020820190508181036000830152612e0881612a3a565b9050919050565b60006020820190508181036000830152612e2881612a5d565b9050919050565b60006020820190508181036000830152612e4881612a80565b9050919050565b60006020820190508181036000830152612e6881612aa3565b9050919050565b60006020820190508181036000830152612e8881612ac6565b9050919050565b60006020820190508181036000830152612ea881612ae9565b9050919050565b60006020820190508181036000830152612ec881612b0c565b9050919050565b60006020820190508181036000830152612ee881612b2f565b9050919050565b60006020820190508181036000830152612f0881612b52565b9050919050565b60006020820190508181036000830152612f2881612b75565b9050919050565b60006020820190508181036000830152612f498184612bed565b905092915050565b6000602082019050612f666000830184612c39565b92915050565b6000606082019050612f816000830186612c39565b612f8e6020830185612c39565b612f9b6040830184612c39565b949350505050565b6000602082019050612fb86000830184612c48565b92915050565b6000819050602082019050919050565b600081519050919050565b600081519050919050565b6000602082019050919050565b600082825260208201905092915050565b600082825260208201905092915050565b600061301e82613166565b915061302983613166565b9250827fffffffffffffffffffffffffffffffffffffffffffffffffffffffffffffffff0382111561305e5761305d61322b565b5b828201905092915050565b600061307482613166565b915061307f83613166565b92508261308f5761308e61325a565b5b828204905092915050565b60006130a582613166565b91506130b083613166565b9250817fffffffffffffffffffffffffffffffffffffffffffffffffffffffffffffffff04831182151516156130e9576130e861322b565b5b828202905092915050565b60006130ff82613166565b915061310a83613166565b92508282101561311d5761311c61322b565b5b828203905092915050565b600061313382613146565b9050919050565b60008115159050919050565b600073ffffffffffffffffffffffffffffffffffffffff82169050919050565b6000819050919050565b600060ff82169050919050565b60005b8381101561319b578082015181840152602081019050613180565b838111156131aa576000848401525b50505050565b600060028204905060018216806131c857607f821691505b602082108114156131dc576131db613289565b5b50919050565b60006131ed82613166565b91507fffffffffffffffffffffffffffffffffffffffffffffffffffffffffffffffff8214156132205761321f61322b565b5b600182019050919050565b7f4e487b7100000000000000000000000000000000000000000000000000000000600052601160045260246000fd5b7f4e487b7100000000000000000000000000000000000000000000000000000000600052601260045260246000fd5b7f4e487b7100000000000000000000000000000000000000000000000000000000600052602260045260246000fd5b6000601f19601f8301169050919050565b7f45524332303a207472616e7366657220746f20746865207a65726f206164647260008201527f6573730000000000000000000000000000000000000000000000000000000000602082015250565b7f45524332303a206275726e20616d6f756e7420657863656564732062616c616e60008201527f6365000000000000000000000000000000000000000000000000000000000000602082015250565b7f4e6f7468696e6720746f20776974686472617700000000000000000000000000600082015250565b7f4f776e61626c653a206e6577206f776e657220697320746865207a65726f206160008201527f6464726573730000000000000000000000000000000000000000000000000000602082015250565b7f45524332303a20617070726f766520746f20746865207a65726f20616464726560008201527f7373000000000000000000000000000000000000000000000000000000000000602082015250565b7f43616e6e6f74207374616b652066726f6d207a65726f20616464726573730000600082015250565b7f5468652075736572206973206e6f742061207374616b65686f6c64657220796560008201527f7400000000000000000000000000000000000000000000000000000000000000602082015250565b7f45524332303a207472616e7366657220616d6f756e742065786365656473206260008201527f616c616e63650000000000000000000000000000000000000000000000000000602082015250565b7f43616e6e6f74207374616b65206d6f7265207468616e20796f75206f776e7300600082015250565b7f43616e2774207769746864726177206d6f7265207468617420796f75206f776e600082015250565b7f45524332303a207472616e7366657220616d6f756e742065786365656473206160008201527f6c6c6f77616e6365000000000000000000000000000000000000000000000000602082015250565b7f4f776e61626c653a2063616c6c6572206973206e6f7420746865206f776e6572600082015250565b7f4e65656420746f207374616b6520736d74682c2063616e74207374616b65206e60008201527f6f7468696e670000000000000000000000000000000000000000000000000000602082015250565b7f43616e2774207769746864726177206e6f7468696e6700000000000000000000600082015250565b7f45524332303a206275726e2066726f6d20746865207a65726f2061646472657360008201527f7300000000000000000000000000000000000000000000000000000000000000602082015250565b7f43616e2774207769746864726177206966206c657373207468616e203120646160008201527f7920706173736564206166746572206c61737420636c61696d00000000000000602082015250565b7f45524332303a207472616e736665722066726f6d20746865207a65726f20616460008201527f6472657373000000000000000000000000000000000000000000000000000000602082015250565b7f45524332303a20617070726f76652066726f6d20746865207a65726f2061646460008201527f7265737300000000000000000000000000000000000000000000000000000000602082015250565b7f45524332303a2064656372656173656420616c6c6f77616e63652062656c6f7760008201527f207a65726f000000000000000000000000000000000000000000000000000000602082015250565b7f45524332303a206d696e7420746f20746865207a65726f206164647265737300600082015250565b6137f481613128565b81146137ff57600080fd5b50565b61380b81613166565b811461381657600080fd5b5056fea2646970667358221220b5a9a9a433d3c57ead02d1f1857f2f0e0fad8c0f8dc7c6b0feecc9734d27de5d64736f6c63430008040033",
  "linkReferences": {},
  "deployedLinkReferences": {}
}