{
  "_format": "hh-sol-artifact-1",
  "contractName": "MashToken",
  "sourceName": "contracts/MashToken.sol",
  "abi": [
    {
      "inputs": [
        {
          "internalType": "uint256",
          "name": "initialSupply",
          "type": "uint256"
        }
      ],
      "stateMutability": "nonpayable",
      "type": "constructor"
    },
    {
      "anonymous": false,
      "inputs": [
        {
          "indexed": true,
          "internalType": "address",
          "name": "owner",
          "type": "address"
        },
        {
          "indexed": true,
          "internalType": "address",
          "name": "spender",
          "type": "address"
        },
        {
          "indexed": false,
          "internalType": "uint256",
          "name": "value",
          "type": "uint256"
        }
      ],
      "name": "Approval",
      "type": "event"
    },
    {
      "anonymous": false,
      "inputs": [
        {
          "indexed": true,
          "internalType": "address",
          "name": "previousOwner",
          "type": "address"
        },
        {
          "indexed": true,
          "internalType": "address",
          "name": "newOwner",
          "type": "address"
        }
      ],
      "name": "OwnershipTransferred",
      "type": "event"
    },
    {
      "anonymous": false,
      "inputs": [
        {
          "indexed": true,
          "internalType": "address",
          "name": "user",
          "type": "address"
        },
        {
          "indexed": false,
          "internalType": "uint256",
          "name": "amount",
          "type": "uint256"
        },
        {
          "indexed": false,
          "internalType": "uint256",
          "name": "index",
          "type": "uint256"
        },
        {
          "indexed": false,
          "internalType": "uint256",
          "name": "timestamp",
          "type": "uint256"
        }
      ],
      "name": "Staked",
      "type": "event"
    },
    {
      "anonymous": false,
      "inputs": [
        {
          "indexed": true,
          "internalType": "address",
          "name": "from",
          "type": "address"
        },
        {
          "indexed": true,
          "internalType": "address",
          "name": "to",
          "type": "address"
        },
        {
          "indexed": false,
          "internalType": "uint256",
          "name": "value",
          "type": "uint256"
        }
      ],
      "name": "Transfer",
      "type": "event"
    },
    {
      "inputs": [],
      "name": "_stakingSummary",
      "outputs": [
        {
          "components": [
            {
              "internalType": "uint256",
              "name": "total_amount",
              "type": "uint256"
            },
            {
              "components": [
                {
                  "internalType": "address",
                  "name": "user",
                  "type": "address"
                },
                {
                  "internalType": "uint256",
                  "name": "amount",
                  "type": "uint256"
                },
                {
                  "internalType": "uint256",
                  "name": "since",
                  "type": "uint256"
                },
                {
                  "internalType": "uint256",
                  "name": "claimable",
                  "type": "uint256"
                }
              ],
              "internalType": "struct Stakeable.Stake[]",
              "name": "stakes",
              "type": "tuple[]"
            }
          ],
          "internalType": "struct Stakeable.StakingSummary",
          "name": "",
          "type": "tuple"
        }
      ],
      "stateMutability": "view",
      "type": "function"
    },
    {
      "inputs": [
        {
          "internalType": "address",
          "name": "owner",
          "type": "address"
        },
        {
          "internalType": "address",
          "name": "spender",
          "type": "address"
        }
      ],
      "name": "allowance",
      "outputs": [
        {
          "internalType": "uint256",
          "name": "",
          "type": "uint256"
        }
      ],
      "stateMutability": "view",
      "type": "function"
    },
    {
      "inputs": [
        {
          "internalType": "address",
          "name": "spender",
          "type": "address"
        },
        {
          "internalType": "uint256",
          "name": "amount",
          "type": "uint256"
        }
      ],
      "name": "approve",
      "outputs": [
        {
          "internalType": "bool",
          "name": "",
          "type": "bool"
        }
      ],
      "stateMutability": "nonpayable",
      "type": "function"
    },
    {
      "inputs": [
        {
          "internalType": "address",
          "name": "account",
          "type": "address"
        }
      ],
      "name": "balanceOf",
      "outputs": [
        {
          "internalType": "uint256",
          "name": "",
          "type": "uint256"
        }
      ],
      "stateMutability": "view",
      "type": "function"
    },
    {
      "inputs": [],
      "name": "claim",
      "outputs": [],
      "stateMutability": "nonpayable",
      "type": "function"
    },
    {
      "inputs": [
        {
          "internalType": "uint256",
          "name": "amount",
          "type": "uint256"
        }
      ],
      "name": "claimAndWithdraw",
      "outputs": [],
      "stateMutability": "nonpayable",
      "type": "function"
    },
    {
      "inputs": [],
      "name": "decimals",
      "outputs": [
        {
          "internalType": "uint8",
          "name": "",
          "type": "uint8"
        }
      ],
      "stateMutability": "view",
      "type": "function"
    },
    {
      "inputs": [
        {
          "internalType": "address",
          "name": "spender",
          "type": "address"
        },
        {
          "internalType": "uint256",
          "name": "subtractedValue",
          "type": "uint256"
        }
      ],
      "name": "decreaseAllowance",
      "outputs": [
        {
          "internalType": "bool",
          "name": "",
          "type": "bool"
        }
      ],
      "stateMutability": "nonpayable",
      "type": "function"
    },
    {
      "inputs": [
        {
          "internalType": "address",
          "name": "spender",
          "type": "address"
        },
        {
          "internalType": "uint256",
          "name": "addedValue",
          "type": "uint256"
        }
      ],
      "name": "increaseAllowance",
      "outputs": [
        {
          "internalType": "bool",
          "name": "",
          "type": "bool"
        }
      ],
      "stateMutability": "nonpayable",
      "type": "function"
    },
    {
      "inputs": [],
      "name": "name",
      "outputs": [
        {
          "internalType": "string",
          "name": "",
          "type": "string"
        }
      ],
      "stateMutability": "view",
      "type": "function"
    },
    {
      "inputs": [],
      "name": "owner",
      "outputs": [
        {
          "internalType": "address",
          "name": "",
          "type": "address"
        }
      ],
      "stateMutability": "view",
      "type": "function"
    },
    {
      "inputs": [],
      "name": "renounceOwnership",
      "outputs": [],
      "stateMutability": "nonpayable",
      "type": "function"
    },
    {
      "inputs": [
        {
          "internalType": "uint256",
          "name": "_amount",
          "type": "uint256"
        }
      ],
      "name": "stake",
      "outputs": [],
      "stateMutability": "nonpayable",
      "type": "function"
    },
    {
      "inputs": [],
      "name": "stakingSummary",
      "outputs": [
        {
          "components": [
            {
              "internalType": "uint256",
              "name": "total_amount",
              "type": "uint256"
            },
            {
              "components": [
                {
                  "internalType": "address",
                  "name": "user",
                  "type": "address"
                },
                {
                  "internalType": "uint256",
                  "name": "amount",
                  "type": "uint256"
                },
                {
                  "internalType": "uint256",
                  "name": "since",
                  "type": "uint256"
                },
                {
                  "internalType": "uint256",
                  "name": "claimable",
                  "type": "uint256"
                }
              ],
              "internalType": "struct Stakeable.Stake[]",
              "name": "stakes",
              "type": "tuple[]"
            }
          ],
          "internalType": "struct Stakeable.StakingSummary",
          "name": "",
          "type": "tuple"
        }
      ],
      "stateMutability": "view",
      "type": "function"
    },
    {
      "inputs": [],
      "name": "symbol",
      "outputs": [
        {
          "internalType": "string",
          "name": "",
          "type": "string"
        }
      ],
      "stateMutability": "view",
      "type": "function"
    },
    {
      "inputs": [],
      "name": "totalSupply",
      "outputs": [
        {
          "internalType": "uint256",
          "name": "",
          "type": "uint256"
        }
      ],
      "stateMutability": "view",
      "type": "function"
    },
    {
      "inputs": [
        {
          "internalType": "address",
          "name": "recipient",
          "type": "address"
        },
        {
          "internalType": "uint256",
          "name": "amount",
          "type": "uint256"
        }
      ],
      "name": "transfer",
      "outputs": [
        {
          "internalType": "bool",
          "name": "",
          "type": "bool"
        }
      ],
      "stateMutability": "nonpayable",
      "type": "function"
    },
    {
      "inputs": [
        {
          "internalType": "address",
          "name": "sender",
          "type": "address"
        },
        {
          "internalType": "address",
          "name": "recipient",
          "type": "address"
        },
        {
          "internalType": "uint256",
          "name": "amount",
          "type": "uint256"
        }
      ],
      "name": "transferFrom",
      "outputs": [
        {
          "internalType": "bool",
          "name": "",
          "type": "bool"
        }
      ],
      "stateMutability": "nonpayable",
      "type": "function"
    },
    {
      "inputs": [
        {
          "internalType": "address",
          "name": "newOwner",
          "type": "address"
        }
      ],
      "name": "transferOwnership",
      "outputs": [],
      "stateMutability": "nonpayable",
      "type": "function"
    },
    {
      "inputs": [],
      "name": "withdraw",
      "outputs": [],
      "stateMutability": "nonpayable",
      "type": "function"
    }
  ],
  "bytecode": "0x60806040523480156200001157600080fd5b506040516200439f3803806200439f833981810160405281019062000037919062000446565b6040518060400160405280600981526020017f4d617368546f6b656e00000000000000000000000000000000000000000000008152506040518060400160405280600481526020017f4d415348000000000000000000000000000000000000000000000000000000008152508160039080519060200190620000bb9291906200037f565b508060049080519060200190620000d49291906200037f565b505050620000f7620000eb6200012e60201b60201c565b6200013660201b60201c565b600660018160018154018082558091505003906000526020600020905050620001273382620001fc60201b60201c565b5062000638565b600033905090565b6000600560009054906101000a900473ffffffffffffffffffffffffffffffffffffffff16905081600560006101000a81548173ffffffffffffffffffffffffffffffffffffffff021916908373ffffffffffffffffffffffffffffffffffffffff1602179055508173ffffffffffffffffffffffffffffffffffffffff168173ffffffffffffffffffffffffffffffffffffffff167f8be0079c531659141344cd1fd0a4f28419497f9722a3daafe3b4186f6b6457e060405160405180910390a35050565b600073ffffffffffffffffffffffffffffffffffffffff168273ffffffffffffffffffffffffffffffffffffffff1614156200026f576040517f08c379a00000000000000000000000000000000000000000000000000000000081526004016200026690620004aa565b60405180910390fd5b62000283600083836200037560201b60201c565b8060026000828254620002979190620004fa565b92505081905550806000808473ffffffffffffffffffffffffffffffffffffffff1673ffffffffffffffffffffffffffffffffffffffff1681526020019081526020016000206000828254620002ee9190620004fa565b925050819055508173ffffffffffffffffffffffffffffffffffffffff16600073ffffffffffffffffffffffffffffffffffffffff167fddf252ad1be2c89b69c2b068fc378daa952ba7f163c4a11628f55a4df523b3ef83604051620003559190620004cc565b60405180910390a362000371600083836200037a60201b60201c565b5050565b505050565b505050565b8280546200038d9062000561565b90600052602060002090601f016020900481019282620003b15760008555620003fd565b82601f10620003cc57805160ff1916838001178555620003fd565b82800160010185558215620003fd579182015b82811115620003fc578251825591602001919060010190620003df565b5b5090506200040c919062000410565b5090565b5b808211156200042b57600081600090555060010162000411565b5090565b60008151905062000440816200061e565b92915050565b6000602082840312156200045957600080fd5b600062000469848285016200042f565b91505092915050565b600062000481601f83620004e9565b91506200048e82620005f5565b602082019050919050565b620004a48162000557565b82525050565b60006020820190508181036000830152620004c58162000472565b9050919050565b6000602082019050620004e3600083018462000499565b92915050565b600082825260208201905092915050565b6000620005078262000557565b9150620005148362000557565b9250827fffffffffffffffffffffffffffffffffffffffffffffffffffffffffffffffff038211156200054c576200054b62000597565b5b828201905092915050565b6000819050919050565b600060028204905060018216806200057a57607f821691505b60208210811415620005915762000590620005c6565b5b50919050565b7f4e487b7100000000000000000000000000000000000000000000000000000000600052601160045260246000fd5b7f4e487b7100000000000000000000000000000000000000000000000000000000600052602260045260246000fd5b7f45524332303a206d696e7420746f20746865207a65726f206164647265737300600082015250565b620006298162000557565b81146200063557600080fd5b50565b613d5780620006486000396000f3fe608060405234801561001057600080fd5b506004361061012c5760003560e01c8063715018a6116100ad578063a89a65b811610071578063a89a65b81461030f578063a9059cbb1461032d578063dd62ed3e1461035d578063f2fde38b1461038d578063f62b46c9146103a95761012c565b8063715018a61461027d5780638da5cb5b1461028757806395d89b41146102a5578063a457c2d7146102c3578063a694fc3a146102f35761012c565b806339509351116100f457806339509351146101eb5780633ccfd60b1461021b5780634291a4ae146102255780634e71d92d1461024357806370a082311461024d5761012c565b806306fdde0314610131578063095ea7b31461014f57806318160ddd1461017f57806323b872dd1461019d578063313ce567146101cd575b600080fd5b6101396103c5565b604051610146919061316b565b60405180910390f35b61016960048036038101906101649190612c79565b610457565b6040516101769190613150565b60405180910390f35b610187610475565b604051610194919061342f565b60405180910390f35b6101b760048036038101906101b29190612c2a565b61047f565b6040516101c49190613150565b60405180910390f35b6101d5610577565b6040516101e29190613481565b60405180910390f35b61020560048036038101906102009190612c79565b610580565b6040516102129190613150565b60405180910390f35b61022361062c565b005b61022d610645565b60405161023a919061340d565b60405180910390f35b61024b610932565b005b61026760048036038101906102629190612bc5565b61093c565b604051610274919061342f565b60405180910390f35b610285610984565b005b61028f610a0c565b60405161029c9190613135565b60405180910390f35b6102ad610a36565b6040516102ba919061316b565b60405180910390f35b6102dd60048036038101906102d89190612c79565b610ac8565b6040516102ea9190613150565b60405180910390f35b61030d60048036038101906103089190612cb5565b610bb3565b005b610317610c57565b604051610324919061340d565b60405180910390f35b61034760048036038101906103429190612c79565b610c6c565b6040516103549190613150565b60405180910390f35b61037760048036038101906103729190612bee565b610c8a565b604051610384919061342f565b60405180910390f35b6103a760048036038101906103a29190612bc5565b610d11565b005b6103c360048036038101906103be9190612cb5565b610e09565b005b6060600380546103d4906136b8565b80601f0160208091040260200160405190810160405280929190818152602001828054610400906136b8565b801561044d5780601f106104225761010080835404028352916020019161044d565b820191906000526020600020905b81548152906001019060200180831161043057829003601f168201915b5050505050905090565b600061046b610464610e15565b8484610e1d565b6001905092915050565b6000600254905090565b600061048c848484610fe8565b6000600160008673ffffffffffffffffffffffffffffffffffffffff1673ffffffffffffffffffffffffffffffffffffffff16815260200190815260200160002060006104d7610e15565b73ffffffffffffffffffffffffffffffffffffffff1673ffffffffffffffffffffffffffffffffffffffff16815260200190815260200160002054905082811015610557576040517f08c379a000000000000000000000000000000000000000000000000000000000815260040161054e906132cd565b60405180910390fd5b61056b85610563610e15565b858403610e1d565b60019150509392505050565b60006012905090565b600061062261058d610e15565b84846001600061059b610e15565b73ffffffffffffffffffffffffffffffffffffffff1673ffffffffffffffffffffffffffffffffffffffff16815260200190815260200160002060008873ffffffffffffffffffffffffffffffffffffffff1673ffffffffffffffffffffffffffffffffffffffff1681526020019081526020016000205461061d91906134f1565b610e1d565b6001905092915050565b6000610636611269565b905061064233826114c4565b50565b61064d612b07565b600080600760003373ffffffffffffffffffffffffffffffffffffffff1673ffffffffffffffffffffffffffffffffffffffff16815260200190815260200160002054905060008114156106d6576040517f08c379a00000000000000000000000000000000000000000000000000000000081526004016106cd9061324d565b60405180910390fd5b600060405180604001604052806000815260200160068481548110610724577f4e487b7100000000000000000000000000000000000000000000000000000000600052603260045260246000fd5b9060005260206000209060040201600301805480602002602001604051908101604052809291908181526020016000905b828210156107fb57838290600052602060002090600402016040518060800160405290816000820160009054906101000a900473ffffffffffffffffffffffffffffffffffffffff1673ffffffffffffffffffffffffffffffffffffffff1673ffffffffffffffffffffffffffffffffffffffff168152602001600182015481526020016002820154815260200160038201548152505081526020019060010190610755565b50505050815250905060005b81602001515181101561091e57600061086383602001518381518110610856577f4e487b7100000000000000000000000000000000000000000000000000000000600052603260045260246000fd5b6020026020010151611624565b905080836020015183815181106108a3577f4e487b7100000000000000000000000000000000000000000000000000000000600052603260045260246000fd5b60200260200101516060018181525050826020015182815181106108f0577f4e487b7100000000000000000000000000000000000000000000000000000000600052603260045260246000fd5b6020026020010151602001518561090791906134f1565b94505060018161091791906134f1565b9050610807565b508281600001818152505080935050505090565b61093a61169b565b565b60008060008373ffffffffffffffffffffffffffffffffffffffff1673ffffffffffffffffffffffffffffffffffffffff168152602001908152602001600020549050919050565b61098c610e15565b73ffffffffffffffffffffffffffffffffffffffff166109aa610a0c565b73ffffffffffffffffffffffffffffffffffffffff1614610a00576040517f08c379a00000000000000000000000000000000000000000000000000000000081526004016109f7906132ed565b60405180910390fd5b610a0a6000611be1565b565b6000600560009054906101000a900473ffffffffffffffffffffffffffffffffffffffff16905090565b606060048054610a45906136b8565b80601f0160208091040260200160405190810160405280929190818152602001828054610a71906136b8565b8015610abe5780601f10610a9357610100808354040283529160200191610abe565b820191906000526020600020905b815481529060010190602001808311610aa157829003601f168201915b5050505050905090565b60008060016000610ad7610e15565b73ffffffffffffffffffffffffffffffffffffffff1673ffffffffffffffffffffffffffffffffffffffff16815260200190815260200160002060008573ffffffffffffffffffffffffffffffffffffffff1673ffffffffffffffffffffffffffffffffffffffff16815260200190815260200160002054905082811015610b94576040517f08c379a0000000000000000000000000000000000000000000000000000000008152600401610b8b906133cd565b60405180910390fd5b610ba8610b9f610e15565b85858403610e1d565b600191505092915050565b610bbc3361093c565b811115610bfe576040517f08c379a0000000000000000000000000000000000000000000000000000000008152600401610bf59061328d565b60405180910390fd5b60008111610c41576040517f08c379a0000000000000000000000000000000000000000000000000000000008152600401610c389061330d565b60405180910390fd5b610c4a81611ca7565b610c543382611e6f565b50565b610c5f612b07565b610c67610645565b905090565b6000610c80610c79610e15565b8484610fe8565b6001905092915050565b6000600160008473ffffffffffffffffffffffffffffffffffffffff1673ffffffffffffffffffffffffffffffffffffffff16815260200190815260200160002060008373ffffffffffffffffffffffffffffffffffffffff1673ffffffffffffffffffffffffffffffffffffffff16815260200190815260200160002054905092915050565b610d19610e15565b73ffffffffffffffffffffffffffffffffffffffff16610d37610a0c565b73ffffffffffffffffffffffffffffffffffffffff1614610d8d576040517f08c379a0000000000000000000000000000000000000000000000000000000008152600401610d84906132ed565b60405180910390fd5b600073ffffffffffffffffffffffffffffffffffffffff168173ffffffffffffffffffffffffffffffffffffffff161415610dfd576040517f08c379a0000000000000000000000000000000000000000000000000000000008152600401610df4906131ed565b60405180910390fd5b610e0681611be1565b50565b610e1281612046565b50565b600033905090565b600073ffffffffffffffffffffffffffffffffffffffff168373ffffffffffffffffffffffffffffffffffffffff161415610e8d576040517f08c379a0000000000000000000000000000000000000000000000000000000008152600401610e84906133ad565b60405180910390fd5b600073ffffffffffffffffffffffffffffffffffffffff168273ffffffffffffffffffffffffffffffffffffffff161415610efd576040517f08c379a0000000000000000000000000000000000000000000000000000000008152600401610ef49061320d565b60405180910390fd5b80600160008573ffffffffffffffffffffffffffffffffffffffff1673ffffffffffffffffffffffffffffffffffffffff16815260200190815260200160002060008473ffffffffffffffffffffffffffffffffffffffff1673ffffffffffffffffffffffffffffffffffffffff168152602001908152602001600020819055508173ffffffffffffffffffffffffffffffffffffffff168373ffffffffffffffffffffffffffffffffffffffff167f8c5be1e5ebec7d5bd14f71427d1e84f3dd0314c0f7b2291e5b200ac8c7c3b92583604051610fdb919061342f565b60405180910390a3505050565b600073ffffffffffffffffffffffffffffffffffffffff168373ffffffffffffffffffffffffffffffffffffffff161415611058576040517f08c379a000000000000000000000000000000000000000000000000000000000815260040161104f9061338d565b60405180910390fd5b600073ffffffffffffffffffffffffffffffffffffffff168273ffffffffffffffffffffffffffffffffffffffff1614156110c8576040517f08c379a00000000000000000000000000000000000000000000000000000000081526004016110bf9061318d565b60405180910390fd5b6110d3838383612930565b60008060008573ffffffffffffffffffffffffffffffffffffffff1673ffffffffffffffffffffffffffffffffffffffff16815260200190815260200160002054905081811015611159576040517f08c379a00000000000000000000000000000000000000000000000000000000081526004016111509061326d565b60405180910390fd5b8181036000808673ffffffffffffffffffffffffffffffffffffffff1673ffffffffffffffffffffffffffffffffffffffff16815260200190815260200160002081905550816000808573ffffffffffffffffffffffffffffffffffffffff1673ffffffffffffffffffffffffffffffffffffffff16815260200190815260200160002060008282546111ec91906134f1565b925050819055508273ffffffffffffffffffffffffffffffffffffffff168473ffffffffffffffffffffffffffffffffffffffff167fddf252ad1be2c89b69c2b068fc378daa952ba7f163c4a11628f55a4df523b3ef84604051611250919061342f565b60405180910390a3611263848484612935565b50505050565b600080600760003373ffffffffffffffffffffffffffffffffffffffff1673ffffffffffffffffffffffffffffffffffffffff1681526020019081526020016000205490506000808214156112f3576040517f08c379a00000000000000000000000000000000000000000000000000000000081526004016112ea9061324d565b60405180910390fd5b6201518060068381548110611331577f4e487b7100000000000000000000000000000000000000000000000000000000600052603260045260246000fd5b9060005260206000209060040201600201544261134e91906135d2565b1161138e576040517f08c379a00000000000000000000000000000000000000000000000000000000081526004016113859061336d565b60405180910390fd5b6000600683815481106113ca577f4e487b7100000000000000000000000000000000000000000000000000000000600052603260045260246000fd5b906000526020600020906004020160010154141561141d576040517f08c379a0000000000000000000000000000000000000000000000000000000008152600401611414906131cd565b60405180910390fd5b60068281548110611457577f4e487b7100000000000000000000000000000000000000000000000000000000600052603260045260246000fd5b90600052602060002090600402016001015490506000600683815481106114a7577f4e487b7100000000000000000000000000000000000000000000000000000000600052603260045260246000fd5b906000526020600020906004020160010181905550809250505090565b600073ffffffffffffffffffffffffffffffffffffffff168273ffffffffffffffffffffffffffffffffffffffff161415611534576040517f08c379a000000000000000000000000000000000000000000000000000000000815260040161152b906133ed565b60405180910390fd5b61154060008383612930565b806002600082825461155291906134f1565b92505081905550806000808473ffffffffffffffffffffffffffffffffffffffff1673ffffffffffffffffffffffffffffffffffffffff16815260200190815260200160002060008282546115a791906134f1565b925050819055508173ffffffffffffffffffffffffffffffffffffffff16600073ffffffffffffffffffffffffffffffffffffffff167fddf252ad1be2c89b69c2b068fc378daa952ba7f163c4a11628f55a4df523b3ef8360405161160c919061342f565b60405180910390a361162060008383612935565b5050565b600080600f90506000836020015190506000610e1085604001514261164991906135d2565b6116539190613547565b905060006122389050600081606461166b9190613578565b90508085858561167b9190613578565b6116859190613578565b61168f9190613547565b95505050505050919050565b6000600760003373ffffffffffffffffffffffffffffffffffffffff1673ffffffffffffffffffffffffffffffffffffffff1681526020019081526020016000205490506000811415611723576040517f08c379a000000000000000000000000000000000000000000000000000000000815260040161171a9061324d565b60405180910390fd5b60006006828154811061175f577f4e487b7100000000000000000000000000000000000000000000000000000000600052603260045260246000fd5b9060005260206000209060040201600301805480602002602001604051908101604052809291908181526020016000905b8282101561183657838290600052602060002090600402016040518060800160405290816000820160009054906101000a900473ffffffffffffffffffffffffffffffffffffffff1673ffffffffffffffffffffffffffffffffffffffff1673ffffffffffffffffffffffffffffffffffffffff168152602001600182015481526020016002820154815260200160038201548152505081526020019060010190611790565b50505050905060008060005b83518110156119be5762015180848281518110611888577f4e487b7100000000000000000000000000000000000000000000000000000000600052603260045260246000fd5b6020026020010151604001514261189f91906135d2565b11156119585760006118f08583815181106118e3577f4e487b7100000000000000000000000000000000000000000000000000000000600052603260045260246000fd5b6020026020010151611624565b905080846118fe91906134f1565b9350848281518110611939577f4e487b7100000000000000000000000000000000000000000000000000000000600052603260045260246000fd5b6020026020010151602001518361195091906134f1565b9250506119ab565b838181518110611991577f4e487b7100000000000000000000000000000000000000000000000000000000600052603260045260246000fd5b602002602001015160200151826119a891906134f1565b91505b80806119b6906136ea565b915050611842565b50600684815481106119f9577f4e487b7100000000000000000000000000000000000000000000000000000000600052603260045260246000fd5b90600052602060002090600402016003016000611a169190612b21565b60068481548110611a50577f4e487b7100000000000000000000000000000000000000000000000000000000600052603260045260246000fd5b906000526020600020906004020160030160405180608001604052803373ffffffffffffffffffffffffffffffffffffffff1681526020018381526020014281526020016000815250908060018154018082558091505060019003906000526020600020906004020160009091909190915060008201518160000160006101000a81548173ffffffffffffffffffffffffffffffffffffffff021916908373ffffffffffffffffffffffffffffffffffffffff16021790555060208201518160010155604082015181600201556060820151816003015550508160068581548110611b64577f4e487b7100000000000000000000000000000000000000000000000000000000600052603260045260246000fd5b90600052602060002090600402016001016000828254611b8491906134f1565b925050819055504260068581548110611bc6577f4e487b7100000000000000000000000000000000000000000000000000000000600052603260045260246000fd5b90600052602060002090600402016002018190555050505050565b6000600560009054906101000a900473ffffffffffffffffffffffffffffffffffffffff16905081600560006101000a81548173ffffffffffffffffffffffffffffffffffffffff021916908373ffffffffffffffffffffffffffffffffffffffff1602179055508173ffffffffffffffffffffffffffffffffffffffff168173ffffffffffffffffffffffffffffffffffffffff167f8be0079c531659141344cd1fd0a4f28419497f9722a3daafe3b4186f6b6457e060405160405180910390a35050565b6000600760003373ffffffffffffffffffffffffffffffffffffffff1673ffffffffffffffffffffffffffffffffffffffff16815260200190815260200160002054905060004290506000821415611d0557611d023361293a565b91505b60068281548110611d3f577f4e487b7100000000000000000000000000000000000000000000000000000000600052603260045260246000fd5b906000526020600020906004020160030160405180608001604052803373ffffffffffffffffffffffffffffffffffffffff1681526020018581526020018381526020016000815250908060018154018082558091505060019003906000526020600020906004020160009091909190915060008201518160000160006101000a81548173ffffffffffffffffffffffffffffffffffffffff021916908373ffffffffffffffffffffffffffffffffffffffff16021790555060208201518160010155604082015181600201556060820151816003015550503373ffffffffffffffffffffffffffffffffffffffff167fb4caaf29adda3eefee3ad552a8e85058589bf834c7466cae4ee58787f70589ed848484604051611e629392919061344a565b60405180910390a2505050565b600073ffffffffffffffffffffffffffffffffffffffff168273ffffffffffffffffffffffffffffffffffffffff161415611edf576040517f08c379a0000000000000000000000000000000000000000000000000000000008152600401611ed69061334d565b60405180910390fd5b611eeb82600083612930565b60008060008473ffffffffffffffffffffffffffffffffffffffff1673ffffffffffffffffffffffffffffffffffffffff16815260200190815260200160002054905081811015611f71576040517f08c379a0000000000000000000000000000000000000000000000000000000008152600401611f68906131ad565b60405180910390fd5b8181036000808573ffffffffffffffffffffffffffffffffffffffff1673ffffffffffffffffffffffffffffffffffffffff168152602001908152602001600020819055508160026000828254611fc891906135d2565b92505081905550600073ffffffffffffffffffffffffffffffffffffffff168373ffffffffffffffffffffffffffffffffffffffff167fddf252ad1be2c89b69c2b068fc378daa952ba7f163c4a11628f55a4df523b3ef8460405161202d919061342f565b60405180910390a361204183600084612935565b505050565b61204e61169b565b60008111612091576040517f08c379a00000000000000000000000000000000000000000000000000000000081526004016120889061332d565b60405180910390fd5b6000600760003373ffffffffffffffffffffffffffffffffffffffff1673ffffffffffffffffffffffffffffffffffffffff1681526020019081526020016000205490506000811415612119576040517f08c379a00000000000000000000000000000000000000000000000000000000081526004016121109061324d565b60405180910390fd5b6000612123610645565b905082816000015160068481548110612165577f4e487b7100000000000000000000000000000000000000000000000000000000600052603260045260246000fd5b90600052602060002090600402016001015461218191906134f1565b11156121c2576040517f08c379a00000000000000000000000000000000000000000000000000000000081526004016121b9906132ad565b60405180910390fd5b600682815481106121fc577f4e487b7100000000000000000000000000000000000000000000000000000000600052603260045260246000fd5b90600052602060002090600402016001015483101561227f5760008360068481548110612252577f4e487b7100000000000000000000000000000000000000000000000000000000600052603260045260246000fd5b90600052602060002090600402016001015461226e91906135d2565b905061227981611ca7565b5061292a565b600682815481106122b9577f4e487b7100000000000000000000000000000000000000000000000000000000600052603260045260246000fd5b9060005260206000209060040201600101548311156129295760006006838154811061230e577f4e487b7100000000000000000000000000000000000000000000000000000000600052603260045260246000fd5b9060005260206000209060040201600101548461232b91906135d2565b9050600060016006858154811061236b577f4e487b7100000000000000000000000000000000000000000000000000000000600052603260045260246000fd5b90600052602060002090600402016003018054905061238a91906135d2565b90505b600684815481106123c7577f4e487b7100000000000000000000000000000000000000000000000000000000600052603260045260246000fd5b90600052602060002090600402016003018054905081106128d6576006848154811061241c577f4e487b7100000000000000000000000000000000000000000000000000000000600052603260045260246000fd5b90600052602060002090600402016003018181548110612465577f4e487b7100000000000000000000000000000000000000000000000000000000600052603260045260246000fd5b906000526020600020906004020160010154821161274857600082600686815481106124ba577f4e487b7100000000000000000000000000000000000000000000000000000000600052603260045260246000fd5b90600052602060002090600402016003018381548110612503577f4e487b7100000000000000000000000000000000000000000000000000000000600052603260045260246000fd5b90600052602060002090600402016001015461251f91906135d2565b1415612607576006848154811061255f577f4e487b7100000000000000000000000000000000000000000000000000000000600052603260045260246000fd5b90600052602060002090600402016003018054806125a6577f4e487b7100000000000000000000000000000000000000000000000000000000600052603160045260246000fd5b6001900381819060005260206000209060040201600080820160006101000a81549073ffffffffffffffffffffffffffffffffffffffff0219169055600182016000905560028201600090556003820160009055505090555050505061292d565b8160068581548110612642577f4e487b7100000000000000000000000000000000000000000000000000000000600052603260045260246000fd5b9060005260206000209060040201600301828154811061268b577f4e487b7100000000000000000000000000000000000000000000000000000000600052603260045260246000fd5b9060005260206000209060040201600101546126a791906135d2565b600685815481106126e1577f4e487b7100000000000000000000000000000000000000000000000000000000600052603260045260246000fd5b9060005260206000209060040201600301828154811061272a577f4e487b7100000000000000000000000000000000000000000000000000000000600052603260045260246000fd5b9060005260206000209060040201600101819055505050505061292d565b60068481548110612782577f4e487b7100000000000000000000000000000000000000000000000000000000600052603260045260246000fd5b906000526020600020906004020160030181815481106127cb577f4e487b7100000000000000000000000000000000000000000000000000000000600052603260045260246000fd5b906000526020600020906004020160010154826127e891906135d2565b915060068481548110612824577f4e487b7100000000000000000000000000000000000000000000000000000000600052603260045260246000fd5b906000526020600020906004020160030180548061286b577f4e487b7100000000000000000000000000000000000000000000000000000000600052603160045260246000fd5b6001900381819060005260206000209060040201600080820160006101000a81549073ffffffffffffffffffffffffffffffffffffffff02191690556001820160009055600282016000905560038201600090555050905580806128ce9061368e565b91505061238d565b508360068481548110612912577f4e487b7100000000000000000000000000000000000000000000000000000000600052603260045260246000fd5b906000526020600020906004020160010181905550505b5b50505b50565b505050565b505050565b60008073ffffffffffffffffffffffffffffffffffffffff168273ffffffffffffffffffffffffffffffffffffffff1614156129ab576040517f08c379a00000000000000000000000000000000000000000000000000000000081526004016129a29061322d565b60405180910390fd5b600660018160018154018082558091505003906000526020600020905050600060016006805490506129dd91906135d2565b90508260068281548110612a1a577f4e487b7100000000000000000000000000000000000000000000000000000000600052603260045260246000fd5b906000526020600020906004020160000160006101000a81548173ffffffffffffffffffffffffffffffffffffffff021916908373ffffffffffffffffffffffffffffffffffffffff160217905550600060068281548110612aa5577f4e487b7100000000000000000000000000000000000000000000000000000000600052603260045260246000fd5b90600052602060002090600402016001018190555080600760008573ffffffffffffffffffffffffffffffffffffffff1673ffffffffffffffffffffffffffffffffffffffff1681526020019081526020016000208190555080915050919050565b604051806040016040528060008152602001606081525090565b5080546000825560040290600052602060002090810190612b429190612b45565b50565b5b80821115612b9757600080820160006101000a81549073ffffffffffffffffffffffffffffffffffffffff021916905560018201600090556002820160009055600382016000905550600401612b46565b5090565b600081359050612baa81613cf3565b92915050565b600081359050612bbf81613d0a565b92915050565b600060208284031215612bd757600080fd5b6000612be584828501612b9b565b91505092915050565b60008060408385031215612c0157600080fd5b6000612c0f85828601612b9b565b9250506020612c2085828601612b9b565b9150509250929050565b600080600060608486031215612c3f57600080fd5b6000612c4d86828701612b9b565b9350506020612c5e86828701612b9b565b9250506040612c6f86828701612bb0565b9150509250925092565b60008060408385031215612c8c57600080fd5b6000612c9a85828601612b9b565b9250506020612cab85828601612bb0565b9150509250929050565b600060208284031215612cc757600080fd5b6000612cd584828501612bb0565b91505092915050565b6000612cea8383613076565b60808301905092915050565b612cff81613606565b82525050565b612d0e81613606565b82525050565b6000612d1f826134ac565b612d2981856134cf565b9350612d348361349c565b8060005b83811015612d65578151612d4c8882612cde565b9750612d57836134c2565b925050600181019050612d38565b5085935050505092915050565b612d7b81613618565b82525050565b6000612d8c826134b7565b612d9681856134e0565b9350612da681856020860161365b565b612daf816137c0565b840191505092915050565b6000612dc76023836134e0565b9150612dd2826137d1565b604082019050919050565b6000612dea6022836134e0565b9150612df582613820565b604082019050919050565b6000612e0d6013836134e0565b9150612e188261386f565b602082019050919050565b6000612e306026836134e0565b9150612e3b82613898565b604082019050919050565b6000612e536022836134e0565b9150612e5e826138e7565b604082019050919050565b6000612e76601e836134e0565b9150612e8182613936565b602082019050919050565b6000612e996021836134e0565b9150612ea48261395f565b604082019050919050565b6000612ebc6026836134e0565b9150612ec7826139ae565b604082019050919050565b6000612edf601f836134e0565b9150612eea826139fd565b602082019050919050565b6000612f026020836134e0565b9150612f0d82613a26565b602082019050919050565b6000612f256028836134e0565b9150612f3082613a4f565b604082019050919050565b6000612f486020836134e0565b9150612f5382613a9e565b602082019050919050565b6000612f6b6026836134e0565b9150612f7682613ac7565b604082019050919050565b6000612f8e6016836134e0565b9150612f9982613b16565b602082019050919050565b6000612fb16021836134e0565b9150612fbc82613b3f565b604082019050919050565b6000612fd46039836134e0565b9150612fdf82613b8e565b604082019050919050565b6000612ff76025836134e0565b915061300282613bdd565b604082019050919050565b600061301a6024836134e0565b915061302582613c2c565b604082019050919050565b600061303d6025836134e0565b915061304882613c7b565b604082019050919050565b6000613060601f836134e0565b915061306b82613cca565b602082019050919050565b60808201600082015161308c6000850182612cf6565b50602082015161309f6020850182613108565b5060408201516130b26040850182613108565b5060608201516130c56060850182613108565b50505050565b60006040830160008301516130e36000860182613108565b50602083015184820360208601526130fb8282612d14565b9150508091505092915050565b61311181613644565b82525050565b61312081613644565b82525050565b61312f8161364e565b82525050565b600060208201905061314a6000830184612d05565b92915050565b60006020820190506131656000830184612d72565b92915050565b600060208201905081810360008301526131858184612d81565b905092915050565b600060208201905081810360008301526131a681612dba565b9050919050565b600060208201905081810360008301526131c681612ddd565b9050919050565b600060208201905081810360008301526131e681612e00565b9050919050565b6000602082019050818103600083015261320681612e23565b9050919050565b6000602082019050818103600083015261322681612e46565b9050919050565b6000602082019050818103600083015261324681612e69565b9050919050565b6000602082019050818103600083015261326681612e8c565b9050919050565b6000602082019050818103600083015261328681612eaf565b9050919050565b600060208201905081810360008301526132a681612ed2565b9050919050565b600060208201905081810360008301526132c681612ef5565b9050919050565b600060208201905081810360008301526132e681612f18565b9050919050565b6000602082019050818103600083015261330681612f3b565b9050919050565b6000602082019050818103600083015261332681612f5e565b9050919050565b6000602082019050818103600083015261334681612f81565b9050919050565b6000602082019050818103600083015261336681612fa4565b9050919050565b6000602082019050818103600083015261338681612fc7565b9050919050565b600060208201905081810360008301526133a681612fea565b9050919050565b600060208201905081810360008301526133c68161300d565b9050919050565b600060208201905081810360008301526133e681613030565b9050919050565b6000602082019050818103600083015261340681613053565b9050919050565b6000602082019050818103600083015261342781846130cb565b905092915050565b60006020820190506134446000830184613117565b92915050565b600060608201905061345f6000830186613117565b61346c6020830185613117565b6134796040830184613117565b949350505050565b60006020820190506134966000830184613126565b92915050565b6000819050602082019050919050565b600081519050919050565b600081519050919050565b6000602082019050919050565b600082825260208201905092915050565b600082825260208201905092915050565b60006134fc82613644565b915061350783613644565b9250827fffffffffffffffffffffffffffffffffffffffffffffffffffffffffffffffff0382111561353c5761353b613733565b5b828201905092915050565b600061355282613644565b915061355d83613644565b92508261356d5761356c613762565b5b828204905092915050565b600061358382613644565b915061358e83613644565b9250817fffffffffffffffffffffffffffffffffffffffffffffffffffffffffffffffff04831182151516156135c7576135c6613733565b5b828202905092915050565b60006135dd82613644565b91506135e883613644565b9250828210156135fb576135fa613733565b5b828203905092915050565b600061361182613624565b9050919050565b60008115159050919050565b600073ffffffffffffffffffffffffffffffffffffffff82169050919050565b6000819050919050565b600060ff82169050919050565b60005b8381101561367957808201518184015260208101905061365e565b83811115613688576000848401525b50505050565b600061369982613644565b915060008214156136ad576136ac613733565b5b600182039050919050565b600060028204905060018216806136d057607f821691505b602082108114156136e4576136e3613791565b5b50919050565b60006136f582613644565b91507fffffffffffffffffffffffffffffffffffffffffffffffffffffffffffffffff82141561372857613727613733565b5b600182019050919050565b7f4e487b7100000000000000000000000000000000000000000000000000000000600052601160045260246000fd5b7f4e487b7100000000000000000000000000000000000000000000000000000000600052601260045260246000fd5b7f4e487b7100000000000000000000000000000000000000000000000000000000600052602260045260246000fd5b6000601f19601f8301169050919050565b7f45524332303a207472616e7366657220746f20746865207a65726f206164647260008201527f6573730000000000000000000000000000000000000000000000000000000000602082015250565b7f45524332303a206275726e20616d6f756e7420657863656564732062616c616e60008201527f6365000000000000000000000000000000000000000000000000000000000000602082015250565b7f4e6f7468696e6720746f20776974686472617700000000000000000000000000600082015250565b7f4f776e61626c653a206e6577206f776e657220697320746865207a65726f206160008201527f6464726573730000000000000000000000000000000000000000000000000000602082015250565b7f45524332303a20617070726f766520746f20746865207a65726f20616464726560008201527f7373000000000000000000000000000000000000000000000000000000000000602082015250565b7f43616e6e6f74207374616b652066726f6d207a65726f20616464726573730000600082015250565b7f5468652075736572206973206e6f742061207374616b65686f6c64657220796560008201527f7400000000000000000000000000000000000000000000000000000000000000602082015250565b7f45524332303a207472616e7366657220616d6f756e742065786365656473206260008201527f616c616e63650000000000000000000000000000000000000000000000000000602082015250565b7f43616e6e6f74207374616b65206d6f7265207468616e20796f75206f776e7300600082015250565b7f43616e2774207769746864726177206d6f7265207468617420796f75206f776e600082015250565b7f45524332303a207472616e7366657220616d6f756e742065786365656473206160008201527f6c6c6f77616e6365000000000000000000000000000000000000000000000000602082015250565b7f4f776e61626c653a2063616c6c6572206973206e6f7420746865206f776e6572600082015250565b7f4e65656420746f207374616b6520736d74682c2063616e74207374616b65206e60008201527f6f7468696e670000000000000000000000000000000000000000000000000000602082015250565b7f43616e2774207769746864726177206e6f7468696e6700000000000000000000600082015250565b7f45524332303a206275726e2066726f6d20746865207a65726f2061646472657360008201527f7300000000000000000000000000000000000000000000000000000000000000602082015250565b7f43616e2774207769746864726177206966206c657373207468616e203120646160008201527f7920706173736564206166746572206c61737420636c61696d00000000000000602082015250565b7f45524332303a207472616e736665722066726f6d20746865207a65726f20616460008201527f6472657373000000000000000000000000000000000000000000000000000000602082015250565b7f45524332303a20617070726f76652066726f6d20746865207a65726f2061646460008201527f7265737300000000000000000000000000000000000000000000000000000000602082015250565b7f45524332303a2064656372656173656420616c6c6f77616e63652062656c6f7760008201527f207a65726f000000000000000000000000000000000000000000000000000000602082015250565b7f45524332303a206d696e7420746f20746865207a65726f206164647265737300600082015250565b613cfc81613606565b8114613d0757600080fd5b50565b613d1381613644565b8114613d1e57600080fd5b5056fea2646970667358221220481dcd5e03ad1f9f9e5c5923f435627fa1e3d12199257b153a87ea15f0120c4f64736f6c63430008040033",
  "linkReferences": {},
  "deployedLinkReferences": {}
}